{
  "contractName": "Cicada_3301",
  "abi": [
    {
      "constant": false,
      "inputs": [
        {
          "name": "_name",
          "type": "string"
        },
        {
          "name": "_adr",
          "type": "uint256"
        },
        {
          "name": "_userId",
          "type": "address"
        }
      ],
      "name": "addUser",
      "outputs": [],
      "payable": false,
      "stateMutability": "nonpayable",
      "type": "function",
      "signature": "0xbe80e0db"
    },
    {
      "constant": false,
      "inputs": [
        {
          "name": "_userId",
          "type": "address"
        },
        {
          "name": "_utype",
          "type": "uint8"
        }
      ],
      "name": "changeUserDomain",
      "outputs": [],
      "payable": false,
      "stateMutability": "nonpayable",
      "type": "function",
      "signature": "0xffa74ddc"
    },
    {
      "constant": false,
      "inputs": [
        {
          "name": "_buyer_id",
          "type": "address"
        },
        {
          "name": "_prop_id",
          "type": "uint256"
        },
        {
          "name": "ipfs_hash",
          "type": "string"
        }
      ],
      "name": "addPropertyRequest",
      "outputs": [],
      "payable": false,
      "stateMutability": "nonpayable",
      "type": "function",
      "signature": "0xf750cb61"
    },
    {
      "constant": false,
      "inputs": [
        {
          "name": "_userId",
          "type": "address"
        },
        {
          "name": "_req_id",
          "type": "uint256"
        }
      ],
      "name": "removePropertyRequest",
      "outputs": [],
      "payable": false,
      "stateMutability": "nonpayable",
      "type": "function",
      "signature": "0x65f870f8"
    },
    {
      "constant": false,
      "inputs": [
        {
          "name": "_from_address",
          "type": "address"
        },
        {
          "name": "_to_address",
          "type": "address"
        },
        {
          "name": "_prop_id",
          "type": "uint256"
        },
        {
          "name": "ipfs_hash",
          "type": "string"
        }
      ],
      "name": "addRecord",
      "outputs": [
        {
          "name": "",
          "type": "uint256"
        }
      ],
      "payable": false,
      "stateMutability": "nonpayable",
      "type": "function",
      "signature": "0x549d2fa3"
    },
    {
      "constant": false,
      "inputs": [
        {
          "name": "_userId",
          "type": "address"
        },
        {
          "name": "_req_id",
          "type": "uint256"
        }
      ],
      "name": "addProperty",
      "outputs": [],
      "payable": false,
      "stateMutability": "nonpayable",
      "type": "function",
      "signature": "0xbc1dfa69"
    },
    {
      "constant": false,
      "inputs": [
        {
          "name": "_userId",
          "type": "address"
        },
        {
          "name": "_req_id",
          "type": "uint256"
        }
      ],
      "name": "removeProperty",
      "outputs": [],
      "payable": false,
      "stateMutability": "nonpayable",
      "type": "function",
      "signature": "0xe81e9ab9"
    },
    {
      "constant": false,
      "inputs": [
        {
          "name": "_req_id",
          "type": "uint256"
        }
      ],
      "name": "notify",
      "outputs": [],
      "payable": false,
      "stateMutability": "nonpayable",
      "type": "function",
      "signature": "0x98d078b4"
    },
    {
      "constant": true,
      "inputs": [
        {
          "name": "_userId",
          "type": "address"
        }
      ],
      "name": "getUser",
      "outputs": [
        {
          "name": "",
          "type": "string"
        },
        {
          "name": "",
          "type": "uint256"
        },
        {
          "name": "",
          "type": "uint8"
        }
      ],
      "payable": false,
      "stateMutability": "view",
      "type": "function",
      "signature": "0x6f77926b"
    },
    {
      "constant": true,
      "inputs": [
        {
          "name": "_prop_id",
          "type": "uint256"
        }
      ],
      "name": "viewPropertyDetail",
      "outputs": [
        {
          "name": "",
          "type": "string"
        },
        {
          "name": "",
          "type": "uint256"
        }
      ],
      "payable": false,
      "stateMutability": "view",
      "type": "function",
      "signature": "0xa7e54d71"
    },
    {
      "constant": true,
      "inputs": [
        {
          "name": "_trans_id",
          "type": "uint256"
        }
      ],
      "name": "viewTranction",
      "outputs": [
        {
          "name": "",
          "type": "address"
        },
        {
          "name": "",
          "type": "address"
        },
        {
          "name": "",
          "type": "uint256"
        },
        {
          "name": "",
          "type": "uint256"
        },
        {
          "name": "",
          "type": "uint8"
        },
        {
          "name": "",
          "type": "address"
        },
        {
          "name": "",
          "type": "string"
        }
      ],
      "payable": false,
      "stateMutability": "view",
      "type": "function",
      "signature": "0x036746c2"
    },
    {
      "constant": false,
      "inputs": [
        {
          "name": "_record_id",
          "type": "uint256"
        }
      ],
      "name": "approve",
      "outputs": [],
      "payable": false,
      "stateMutability": "nonpayable",
      "type": "function",
      "signature": "0xb759f954"
    },
    {
      "constant": false,
      "inputs": [
        {
          "name": "_record_id",
          "type": "uint256"
        }
      ],
      "name": "reject",
      "outputs": [],
      "payable": false,
      "stateMutability": "nonpayable",
      "type": "function",
      "signature": "0xb8adaa11"
    },
    {
      "constant": false,
      "inputs": [
        {
          "name": "_req_id",
          "type": "uint256"
        }
      ],
      "name": "removeNotification",
      "outputs": [],
      "payable": false,
      "stateMutability": "nonpayable",
      "type": "function",
      "signature": "0x3a9a0438"
    },
    {
      "constant": true,
      "inputs": [
        {
          "name": "_userId",
          "type": "address"
        },
        {
          "name": "_ptr",
          "type": "uint256"
        }
      ],
      "name": "getNextPropertyId",
      "outputs": [
        {
          "name": "",
          "type": "uint256"
        }
      ],
      "payable": false,
      "stateMutability": "view",
      "type": "function",
      "signature": "0xb2c308f8"
    },
    {
      "constant": true,
      "inputs": [
        {
          "name": "_userId",
          "type": "address"
        },
        {
          "name": "_ptr",
          "type": "uint256"
        }
      ],
      "name": "getNextRequestedPropertyId",
      "outputs": [
        {
          "name": "",
          "type": "uint256"
        }
      ],
      "payable": false,
      "stateMutability": "view",
      "type": "function",
      "signature": "0xf7ce23cb"
    },
    {
      "constant": true,
      "inputs": [
        {
          "name": "_ptr",
          "type": "uint256"
        }
      ],
      "name": "getNextNotificationId",
      "outputs": [
        {
          "name": "",
          "type": "uint256"
        }
      ],
      "payable": false,
      "stateMutability": "view",
      "type": "function",
      "signature": "0x9aca832e"
    },
    {
      "constant": false,
      "inputs": [
        {
          "name": "_to",
          "type": "address"
        },
        {
          "name": "_info",
          "type": "string"
        },
        {
          "name": "_data_hash",
          "type": "string"
        }
      ],
      "name": "createNewProperty",
      "outputs": [
        {
          "name": "",
          "type": "uint256"
        }
      ],
      "payable": false,
      "stateMutability": "nonpayable",
      "type": "function",
      "signature": "0x0e6a7846"
    },
    {
      "constant": true,
      "inputs": [
        {
          "name": "_aadhaar",
          "type": "uint256"
        }
      ],
      "name": "searchByAadhaar",
      "outputs": [
        {
          "name": "",
          "type": "address"
        }
      ],
      "payable": false,
      "stateMutability": "view",
      "type": "function",
      "signature": "0xeca785c8"
    }
  ],
  "bytecode": "0x608060405260008060006101000a81548160ff02191690831515021790555060016004556000600755600160085534801561003957600080fd5b50612b77806100496000396000f3fe608060405260043610610107576000357c0100000000000000000000000000000000000000000000000000000000900463ffffffff168063036746c21461010c5780630e6a78461461027c5780633a9a04381461040f578063549d2fa31461044a57806365f870f8146105705780636f77926b146105cb57806398d078b4146106b15780639aca832e146106ec578063a7e54d711461073b578063b2c308f8146107f6578063b759f95414610865578063b8adaa11146108a0578063bc1dfa69146108db578063be80e0db14610936578063e81e9ab914610a28578063eca785c814610a83578063f750cb6114610afe578063f7ce23cb14610bf0578063ffa74ddc14610c5f575b600080fd5b34801561011857600080fd5b506101456004803603602081101561012f57600080fd5b8101908080359060200190929190505050610cbd565b604051808873ffffffffffffffffffffffffffffffffffffffff1673ffffffffffffffffffffffffffffffffffffffff1681526020018773ffffffffffffffffffffffffffffffffffffffff1673ffffffffffffffffffffffffffffffffffffffff1681526020018681526020018581526020018460028111156101c557fe5b60ff1681526020018373ffffffffffffffffffffffffffffffffffffffff1673ffffffffffffffffffffffffffffffffffffffff16815260200180602001828103825283818151815260200191508051906020019080838360005b8381101561023b578082015181840152602081019050610220565b50505050905090810190601f1680156102685780820380516001836020036101000a031916815260200191505b509850505050505050505060405180910390f35b34801561028857600080fd5b506103f96004803603606081101561029f57600080fd5b81019080803573ffffffffffffffffffffffffffffffffffffffff169060200190929190803590602001906401000000008111156102dc57600080fd5b8201836020820111156102ee57600080fd5b8035906020019184600183028401116401000000008311171561031057600080fd5b91908080601f016020809104026020016040519081016040528093929190818152602001838380828437600081840152601f19601f8201169050808301925050505050505091929192908035906020019064010000000081111561037357600080fd5b82018360208201111561038557600080fd5b803590602001918460018302840111640100000000831117156103a757600080fd5b91908080601f016020809104026020016040519081016040528093929190818152602001838380828437600081840152601f19601f820116905080830192505050505050509192919290505050610e8a565b6040518082815260200191505060405180910390f35b34801561041b57600080fd5b506104486004803603602081101561043257600080fd5b81019080803590602001909291905050506110e7565b005b34801561045657600080fd5b5061055a6004803603608081101561046d57600080fd5b81019080803573ffffffffffffffffffffffffffffffffffffffff169060200190929190803573ffffffffffffffffffffffffffffffffffffffff16906020019092919080359060200190929190803590602001906401000000008111156104d457600080fd5b8201836020820111156104e657600080fd5b8035906020019184600183028401116401000000008311171561050857600080fd5b91908080601f016020809104026020016040519081016040528093929190818152602001838380828437600081840152601f19601f8201169050808301925050505050505091929192905050506111d8565b6040518082815260200191505060405180910390f35b34801561057c57600080fd5b506105c96004803603604081101561059357600080fd5b81019080803573ffffffffffffffffffffffffffffffffffffffff16906020019092919080359060200190929190505050611382565b005b3480156105d757600080fd5b5061061a600480360360208110156105ee57600080fd5b81019080803573ffffffffffffffffffffffffffffffffffffffff169060200190929190505050611734565b604051808060200184815260200183600281111561063457fe5b60ff168152602001828103825285818151815260200191508051906020019080838360005b83811015610674578082015181840152602081019050610659565b50505050905090810190601f1680156106a15780820380516001836020036101000a031916815260200191505b5094505050505060405180910390f35b3480156106bd57600080fd5b506106ea600480360360208110156106d457600080fd5b81019080803590602001909291905050506118b7565b005b3480156106f857600080fd5b506107256004803603602081101561070f57600080fd5b8101908080359060200190929190505050611917565b6040518082815260200191505060405180910390f35b34801561074757600080fd5b506107746004803603602081101561075e57600080fd5b8101908080359060200190929190505050611937565b6040518080602001838152602001828103825284818151815260200191508051906020019080838360005b838110156107ba57808201518184015260208101905061079f565b50505050905090810190601f1680156107e75780820380516001836020036101000a031916815260200191505b50935050505060405180910390f35b34801561080257600080fd5b5061084f6004803603604081101561081957600080fd5b81019080803573ffffffffffffffffffffffffffffffffffffffff16906020019092919080359060200190929190505050611a0d565b6040518082815260200191505060405180910390f35b34801561087157600080fd5b5061089e6004803603602081101561088857600080fd5b8101908080359060200190929190505050611a6e565b005b3480156108ac57600080fd5b506108d9600480360360208110156108c357600080fd5b8101908080359060200190929190505050611ca5565b005b3480156108e757600080fd5b50610934600480360360408110156108fe57600080fd5b81019080803573ffffffffffffffffffffffffffffffffffffffff16906020019092919080359060200190929190505050611e0f565b005b34801561094257600080fd5b50610a266004803603606081101561095957600080fd5b810190808035906020019064010000000081111561097657600080fd5b82018360208201111561098857600080fd5b803590602001918460018302840111640100000000831117156109aa57600080fd5b91908080601f016020809104026020016040519081016040528093929190818152602001838380828437600081840152601f19601f82011690508083019250505050505050919291929080359060200190929190803573ffffffffffffffffffffffffffffffffffffffff169060200190929190505050611ff0565b005b348015610a3457600080fd5b50610a8160048036036040811015610a4b57600080fd5b81019080803573ffffffffffffffffffffffffffffffffffffffff169060200190929190803590602001909291905050506122e9565b005b348015610a8f57600080fd5b50610abc60048036036020811015610aa657600080fd5b810190808035906020019092919050505061269b565b604051808273ffffffffffffffffffffffffffffffffffffffff1673ffffffffffffffffffffffffffffffffffffffff16815260200191505060405180910390f35b348015610b0a57600080fd5b50610bee60048036036060811015610b2157600080fd5b81019080803573ffffffffffffffffffffffffffffffffffffffff1690602001909291908035906020019092919080359060200190640100000000811115610b6857600080fd5b820183602082011115610b7a57600080fd5b80359060200191846001830284011164010000000083111715610b9c57600080fd5b91908080601f016020809104026020016040519081016040528093929190818152602001838380828437600081840152601f19601f8201169050808301925050505050505091929192905050506126d8565b005b348015610bfc57600080fd5b50610c4960048036036040811015610c1357600080fd5b81019080803573ffffffffffffffffffffffffffffffffffffffff169060200190929190803590602001909291905050506128cb565b6040518082815260200191505060405180910390f35b348015610c6b57600080fd5b50610cbb60048036036040811015610c8257600080fd5b81019080803573ffffffffffffffffffffffffffffffffffffffff169060200190929190803560ff16906020019092919050505061292c565b005b60008060008060008060606005600089815260200190815260200160002060000160009054906101000a900473ffffffffffffffffffffffffffffffffffffffff16600560008a815260200190815260200160002060010160009054906101000a900473ffffffffffffffffffffffffffffffffffffffff16600560008b815260200190815260200160002060020154600560008c815260200190815260200160002060030154600560008d815260200190815260200160002060040160009054906101000a900460ff16600560008e815260200190815260200160002060040160019054906101000a900473ffffffffffffffffffffffffffffffffffffffff16600560008f8152602001908152602001600020600501808054600181600116156101000203166002900480601f016020809104026020016040519081016040528092919081815260200182805460018160011615610100020316600290048015610e6a5780601f10610e3f57610100808354040283529160200191610e6a565b820191906000526020600020905b815481529060010190602001808311610e4d57829003601f168201915b505050505090509650965096509650965096509650919395979092949650565b600060408051908101604052808481526020016008548152506003600060045481526020019081526020016000206000820151816000019080519060200190610ed4929190612a26565b506020820151816001015590505060e060405190810160405280600073ffffffffffffffffffffffffffffffffffffffff1681526020018573ffffffffffffffffffffffffffffffffffffffff16815260200160008152602001600454815260200160016002811115610f4357fe5b81526020013373ffffffffffffffffffffffffffffffffffffffff1681526020018381525060056000600854815260200190815260200160002060008201518160000160006101000a81548173ffffffffffffffffffffffffffffffffffffffff021916908373ffffffffffffffffffffffffffffffffffffffff16021790555060208201518160010160006101000a81548173ffffffffffffffffffffffffffffffffffffffff021916908373ffffffffffffffffffffffffffffffffffffffff160217905550604082015181600201556060820151816003015560808201518160040160006101000a81548160ff0219169083600281111561104357fe5b021790555060a08201518160040160016101000a81548173ffffffffffffffffffffffffffffffffffffffff021916908373ffffffffffffffffffffffffffffffffffffffff16021790555060c08201518160050190805190602001906110ab929190612a26565b509050506110bb84600854611e0f565b600860008154809291906001019190505550600460008154809291906001019190505590509392505050565b80600754141561110f5760066000828152602001908152602001600020600001546007819055505b60066000828152602001908152602001600020600001546006600060066000858152602001908152602001600020600101548152602001908152602001600020600001819055506006600082815260200190815260200160002060010154600660006006600085815260200190815260200160002060000154815260200190815260200160002060010181905550600060066000838152602001908152602001600020600101819055506000600660008381526020019081526020016000206000018190555050565b60008460056000600854815260200190815260200160002060000160006101000a81548173ffffffffffffffffffffffffffffffffffffffff021916908373ffffffffffffffffffffffffffffffffffffffff1602179055508360056000600854815260200190815260200160002060010160006101000a81548173ffffffffffffffffffffffffffffffffffffffff021916908373ffffffffffffffffffffffffffffffffffffffff1602179055508260056000600854815260200190815260200160002060030181905550600060056000600854815260200190815260200160002060040160006101000a81548160ff021916908360028111156112da57fe5b021790555081600560006008548152602001908152602001600020600501908051906020019061130b929190612aa6565b5060036000848152602001908152602001600020600101546005600060085481526020019081526020016000206002018190555060085460036000858152602001908152602001600020600101819055506113676008546118b7565b60086000815480929190600101919050559050949350505050565b80600160008473ffffffffffffffffffffffffffffffffffffffff1673ffffffffffffffffffffffffffffffffffffffff16815260200190815260200160002060060154141561146a57600160008373ffffffffffffffffffffffffffffffffffffffff1673ffffffffffffffffffffffffffffffffffffffff168152602001908152602001600020600501600082815260200190815260200160002060000154600160008473ffffffffffffffffffffffffffffffffffffffff1673ffffffffffffffffffffffffffffffffffffffff168152602001908152602001600020600601819055505b600160008373ffffffffffffffffffffffffffffffffffffffff1673ffffffffffffffffffffffffffffffffffffffff168152602001908152602001600020600501600082815260200190815260200160002060010154600160008473ffffffffffffffffffffffffffffffffffffffff1673ffffffffffffffffffffffffffffffffffffffff1681526020019081526020016000206005016000600160008673ffffffffffffffffffffffffffffffffffffffff1673ffffffffffffffffffffffffffffffffffffffff168152602001908152602001600020600501600085815260200190815260200160002060000154815260200190815260200160002060010181905550600160008373ffffffffffffffffffffffffffffffffffffffff1673ffffffffffffffffffffffffffffffffffffffff168152602001908152602001600020600501600082815260200190815260200160002060000154600160008473ffffffffffffffffffffffffffffffffffffffff1673ffffffffffffffffffffffffffffffffffffffff1681526020019081526020016000206005016000600160008673ffffffffffffffffffffffffffffffffffffffff1673ffffffffffffffffffffffffffffffffffffffff1681526020019081526020016000206005016000858152602001908152602001600020600101548152602001908152602001600020600001819055506000600160008473ffffffffffffffffffffffffffffffffffffffff1673ffffffffffffffffffffffffffffffffffffffff1681526020019081526020016000206005016000838152602001908152602001600020600101819055506000600160008473ffffffffffffffffffffffffffffffffffffffff1673ffffffffffffffffffffffffffffffffffffffff1681526020019081526020016000206005016000838152602001908152602001600020600001819055505050565b6060600080600160008573ffffffffffffffffffffffffffffffffffffffff1673ffffffffffffffffffffffffffffffffffffffff168152602001908152602001600020600001600160008673ffffffffffffffffffffffffffffffffffffffff1673ffffffffffffffffffffffffffffffffffffffff16815260200190815260200160002060010154600160008773ffffffffffffffffffffffffffffffffffffffff1673ffffffffffffffffffffffffffffffffffffffff16815260200190815260200160002060020160009054906101000a900460ff16828054600181600116156101000203166002900480601f0160208091040260200160405190810160405280929190818152602001828054600181600116156101000203166002900480156118a35780601f10611878576101008083540402835291602001916118a3565b820191906000526020600020905b81548152906001019060200180831161188657829003601f168201915b505050505092509250925092509193909250565b80600660006007548152602001908152602001600020600101819055506007546006600083815260200190815260200160002060000181905550600060066000838152602001908152602001600020600101819055508060078190555050565b600060066000838152602001908152602001600020600101549050919050565b60606000600360008481526020019081526020016000206000016003600085815260200190815260200160002060010154818054600181600116156101000203166002900480601f0160208091040260200160405190810160405280929190818152602001828054600181600116156101000203166002900480156119fd5780601f106119d2576101008083540402835291602001916119fd565b820191906000526020600020905b8154815290600101906020018083116119e057829003601f168201915b5050505050915091509150915091565b6000600160008473ffffffffffffffffffffffffffffffffffffffff1673ffffffffffffffffffffffffffffffffffffffff168152602001908152602001600020600301600083815260200190815260200160002060010154905092915050565b60016002811115611a7b57fe5b600160003373ffffffffffffffffffffffffffffffffffffffff1673ffffffffffffffffffffffffffffffffffffffff16815260200190815260200160002060020160009054906101000a900460ff166002811115611ad657fe5b1480611b465750600280811115611ae957fe5b600160003373ffffffffffffffffffffffffffffffffffffffff1673ffffffffffffffffffffffffffffffffffffffff16815260200190815260200160002060020160009054906101000a900460ff166002811115611b4457fe5b145b15611ca25760016005600083815260200190815260200160002060040160006101000a81548160ff02191690836002811115611b7e57fe5b0217905550336005600083815260200190815260200160002060040160016101000a81548173ffffffffffffffffffffffffffffffffffffffff021916908373ffffffffffffffffffffffffffffffffffffffff160217905550611c186005600083815260200190815260200160002060010160009054906101000a900473ffffffffffffffffffffffffffffffffffffffff1682611382565b611c21816110e7565b611c616005600083815260200190815260200160002060010160009054906101000a900473ffffffffffffffffffffffffffffffffffffffff1682611e0f565b611ca16005600083815260200190815260200160002060010160009054906101000a900473ffffffffffffffffffffffffffffffffffffffff16826122e9565b5b50565b60016002811115611cb257fe5b600160003373ffffffffffffffffffffffffffffffffffffffff1673ffffffffffffffffffffffffffffffffffffffff16815260200190815260200160002060020160009054906101000a900460ff166002811115611d0d57fe5b1480611d7d5750600280811115611d2057fe5b600160003373ffffffffffffffffffffffffffffffffffffffff1673ffffffffffffffffffffffffffffffffffffffff16815260200190815260200160002060020160009054906101000a900460ff166002811115611d7b57fe5b145b15611e0c57611dc26005600083815260200190815260200160002060010160009054906101000a900473ffffffffffffffffffffffffffffffffffffffff16826122e9565b611e026005600083815260200190815260200160002060010160009054906101000a900473ffffffffffffffffffffffffffffffffffffffff1682611382565b611e0b816110e7565b5b50565b80600160008473ffffffffffffffffffffffffffffffffffffffff1673ffffffffffffffffffffffffffffffffffffffff1681526020019081526020016000206003016000600160008673ffffffffffffffffffffffffffffffffffffffff1673ffffffffffffffffffffffffffffffffffffffff16815260200190815260200160002060040154815260200190815260200160002060010181905550600160008373ffffffffffffffffffffffffffffffffffffffff1673ffffffffffffffffffffffffffffffffffffffff16815260200190815260200160002060040154600160008473ffffffffffffffffffffffffffffffffffffffff1673ffffffffffffffffffffffffffffffffffffffff1681526020019081526020016000206003016000838152602001908152602001600020600001819055506000600160008473ffffffffffffffffffffffffffffffffffffffff1673ffffffffffffffffffffffffffffffffffffffff16815260200190815260200160002060030160008381526020019081526020016000206001018190555080600160008473ffffffffffffffffffffffffffffffffffffffff1673ffffffffffffffffffffffffffffffffffffffff168152602001908152602001600020600401819055505050565b600082141580156120605750600073ffffffffffffffffffffffffffffffffffffffff166002600084815260200190815260200160002060009054906101000a900473ffffffffffffffffffffffffffffffffffffffff1673ffffffffffffffffffffffffffffffffffffffff16145b156122e45782600160008373ffffffffffffffffffffffffffffffffffffffff1673ffffffffffffffffffffffffffffffffffffffff16815260200190815260200160002060000190805190602001906120bb929190612aa6565b5081600160008373ffffffffffffffffffffffffffffffffffffffff1673ffffffffffffffffffffffffffffffffffffffff168152602001908152602001600020600101819055506000600160008373ffffffffffffffffffffffffffffffffffffffff1673ffffffffffffffffffffffffffffffffffffffff16815260200190815260200160002060020160006101000a81548160ff0219169083600281111561216257fe5b02179055506000600160008373ffffffffffffffffffffffffffffffffffffffff1673ffffffffffffffffffffffffffffffffffffffff168152602001908152602001600020600601819055506000600160008373ffffffffffffffffffffffffffffffffffffffff1673ffffffffffffffffffffffffffffffffffffffff16815260200190815260200160002060040181905550806002600084815260200190815260200160002060006101000a81548173ffffffffffffffffffffffffffffffffffffffff021916908373ffffffffffffffffffffffffffffffffffffffff160217905550600015156000809054906101000a900460ff16151514156122e3576002600160008373ffffffffffffffffffffffffffffffffffffffff1673ffffffffffffffffffffffffffffffffffffffff16815260200190815260200160002060020160006101000a81548160ff021916908360028111156122c357fe5b021790555060016000806101000a81548160ff0219169083151502179055505b5b505050565b80600160008473ffffffffffffffffffffffffffffffffffffffff1673ffffffffffffffffffffffffffffffffffffffff1681526020019081526020016000206004015414156123d157600160008373ffffffffffffffffffffffffffffffffffffffff1673ffffffffffffffffffffffffffffffffffffffff168152602001908152602001600020600301600082815260200190815260200160002060000154600160008473ffffffffffffffffffffffffffffffffffffffff1673ffffffffffffffffffffffffffffffffffffffff168152602001908152602001600020600401819055505b600160008373ffffffffffffffffffffffffffffffffffffffff1673ffffffffffffffffffffffffffffffffffffffff168152602001908152602001600020600301600082815260200190815260200160002060010154600160008473ffffffffffffffffffffffffffffffffffffffff1673ffffffffffffffffffffffffffffffffffffffff1681526020019081526020016000206003016000600160008673ffffffffffffffffffffffffffffffffffffffff1673ffffffffffffffffffffffffffffffffffffffff168152602001908152602001600020600301600085815260200190815260200160002060000154815260200190815260200160002060010181905550600160008373ffffffffffffffffffffffffffffffffffffffff1673ffffffffffffffffffffffffffffffffffffffff168152602001908152602001600020600301600082815260200190815260200160002060000154600160008473ffffffffffffffffffffffffffffffffffffffff1673ffffffffffffffffffffffffffffffffffffffff1681526020019081526020016000206003016000600160008673ffffffffffffffffffffffffffffffffffffffff1673ffffffffffffffffffffffffffffffffffffffff1681526020019081526020016000206003016000858152602001908152602001600020600101548152602001908152602001600020600001819055506000600160008473ffffffffffffffffffffffffffffffffffffffff1673ffffffffffffffffffffffffffffffffffffffff1681526020019081526020016000206003016000838152602001908152602001600020600101819055506000600160008473ffffffffffffffffffffffffffffffffffffffff1673ffffffffffffffffffffffffffffffffffffffff1681526020019081526020016000206003016000838152602001908152602001600020600001819055505050565b60006002600083815260200190815260200160002060009054906101000a900473ffffffffffffffffffffffffffffffffffffffff169050919050565b60006126e6338585856111d8565b905080600160008673ffffffffffffffffffffffffffffffffffffffff1673ffffffffffffffffffffffffffffffffffffffff1681526020019081526020016000206005016000600160008873ffffffffffffffffffffffffffffffffffffffff1673ffffffffffffffffffffffffffffffffffffffff16815260200190815260200160002060060154815260200190815260200160002060010181905550600160008573ffffffffffffffffffffffffffffffffffffffff1673ffffffffffffffffffffffffffffffffffffffff16815260200190815260200160002060060154600160008673ffffffffffffffffffffffffffffffffffffffff1673ffffffffffffffffffffffffffffffffffffffff1681526020019081526020016000206005016000838152602001908152602001600020600001819055506000600160008673ffffffffffffffffffffffffffffffffffffffff1673ffffffffffffffffffffffffffffffffffffffff16815260200190815260200160002060050160008381526020019081526020016000206001018190555080600160008673ffffffffffffffffffffffffffffffffffffffff1673ffffffffffffffffffffffffffffffffffffffff1681526020019081526020016000206006018190555050505050565b6000600160008473ffffffffffffffffffffffffffffffffffffffff1673ffffffffffffffffffffffffffffffffffffffff168152602001908152602001600020600501600083815260200190815260200160002060010154905092915050565b60028081111561293857fe5b600160003373ffffffffffffffffffffffffffffffffffffffff1673ffffffffffffffffffffffffffffffffffffffff16815260200190815260200160002060020160009054906101000a900460ff16600281111561299357fe5b1415612a22576002808111156129a557fe5b8160028111156129b157fe5b141515156129be57600080fd5b80600160008473ffffffffffffffffffffffffffffffffffffffff1673ffffffffffffffffffffffffffffffffffffffff16815260200190815260200160002060020160006101000a81548160ff02191690836002811115612a1c57fe5b02179055505b5050565b828054600181600116156101000203166002900490600052602060002090601f016020900481019282601f10612a6757805160ff1916838001178555612a95565b82800160010185558215612a95579182015b82811115612a94578251825591602001919060010190612a79565b5b509050612aa29190612b26565b5090565b828054600181600116156101000203166002900490600052602060002090601f016020900481019282601f10612ae757805160ff1916838001178555612b15565b82800160010185558215612b15579182015b82811115612b14578251825591602001919060010190612af9565b5b509050612b229190612b26565b5090565b612b4891905b80821115612b44576000816000905550600101612b2c565b5090565b9056fea165627a7a72305820975094e966342d47cd1b8aba739dd52c5be6a1d987f2e9d86baff7345d0a5fc50029",
  "source": "pragma solidity ^0.5.0;\n\n\ncontract Cicada_3301 {\n\n    struct Obj {\n        uint _prev;\n        uint _next;\n    }\n\n    // User\n    // defination\n    enum UserType {user, admin, super_admin}\n    struct Person {\n        string name;        // Name\n        uint adr;           // Aadhaar number\n        UserType utype;     // User type\n\n        // Properties Associated with a user\n        mapping(uint => Obj) properties;\n        uint propertiesTop;\n\n        // Property buyRequest\n        mapping(uint => Obj) requestList;\n        uint requestListTop;\n    }\n\n    // User decleration\n    bool super_admin_created = false; // Create the first User as SuperAdmin\n    mapping(address => Person) users;\n    mapping(uint => address) aadhaarmap;\n\n\n\n    // Property\n    // defination\n    struct PropertyDetail {\n        string _info;           // information about the property\n        // string _data_hash;      // ipfs hash of associated data\n        uint _trans_id;         // Transaction id\n    }\n\n    // defination\n    // mapping all properties\n    mapping(uint => PropertyDetail) properties;\n    uint private property_counter = 1;\n\n\n    // Tranction\n    enum TranctionState {requested, approved, rejected}\n\n    // Tranction block\n    struct Tranction {\n        address _from;          // sender\n        address _to;            // buyer\n        uint256 _prev;          // previous Tranction block id\n        uint256 _prop;          // property id { any property }\n        TranctionState _state;  // state of Tranction\n        address approved_by;\n        string _ipfs_hash;\n    }\n\n    // mapping all the Tranction records\n    mapping(uint256 => Tranction) recordlist;\n    mapping(uint256 => Obj) requestList;\n    uint256 requestListTop = 0;\n    uint256 requestListCounter = 1;\n\n\n\n    // drver functions\n    // Admin require\n    modifier isAdmin() {\n        if(users[msg.sender].utype == UserType.admin || users[msg.sender].utype == UserType.super_admin)\n        _;\n    }\n    // Super Admin require\n    modifier isSuperAdmin() {\n        if(users[msg.sender].utype == UserType.super_admin)\n        _;\n    }\n\n\n\n    //User Logic\n    // adding the user with services\n    function addUser(string memory _name, uint _adr, address _userId) public {\n\n        // check if the user is previously registerd\n        if(_adr != uint(0) && aadhaarmap[_adr] == address(0)) {\n\n            users[_userId].name = _name;\n            users[_userId].adr = _adr;\n            users[_userId].utype = UserType.user;\n\n            // set initial pointers\n            users[_userId].requestListTop = 0;\n            users[_userId].propertiesTop = 0;\n            aadhaarmap[_adr] = _userId;\n\n            // make the first user super admin\n            if(super_admin_created == false) {\n                 users[_userId].utype = UserType.super_admin;\n                 super_admin_created = true;\n            }\n        }\n    }\n\n\n    function changeUserDomain(address _userId, UserType _utype) public isSuperAdmin {\n        require(_utype != UserType.super_admin);\n        users[_userId].utype = _utype;\n    }\n\n    // add property in requestList {if the user is requested to sell there property}\n    function addPropertyRequest(address _buyer_id, uint _prop_id, string memory ipfs_hash) public {\n        uint _req_id = addRecord(msg.sender, _buyer_id, _prop_id, ipfs_hash);\n\n        // add the pointer of the transection request to the requestList\n        users[_buyer_id].requestList[users[_buyer_id].requestListTop]._next = _req_id;\n\n        // link the top requestList block to the previous block\n        users[_buyer_id].requestList[_req_id]._prev = users[_buyer_id].requestListTop;\n\n        // make the top pointer as the end of the list\n        users[_buyer_id].requestList[_req_id]._next = 0;\n\n        // save the pointer to the top of the requestList\n        users[_buyer_id].requestListTop = _req_id;\n    }\n\n\n    // remove the property request from  the requestList\n    function removePropertyRequest(address _userId, uint _req_id) public {\n        // shift the pointer to the previous block if - removing the top block\n        if(users[_userId].requestListTop == _req_id) users[_userId].requestListTop = users[_userId].requestList[_req_id]._prev;\n\n        // link the previous and next block\n        users[_userId].requestList[users[_userId].requestList[_req_id]._prev]._next = users[_userId].requestList[_req_id]._next;\n        users[_userId].requestList[users[_userId].requestList[_req_id]._next]._prev = users[_userId].requestList[_req_id]._prev;\n\n        // clear the current block\n        users[_userId].requestList[_req_id]._next = 0;\n        users[_userId].requestList[_req_id]._prev = 0;\n    }\n\n\n\n    // add new Tranction requested {Tranction requested! not a final Tranction}\n    function addRecord(address _from_address, address _to_address, uint256 _prop_id, string memory ipfs_hash) public returns(uint256) {\n        recordlist[requestListCounter]._from = _from_address;\n        recordlist[requestListCounter]._to = _to_address;\n        recordlist[requestListCounter]._prop = _prop_id;\n        recordlist[requestListCounter]._state = TranctionState.requested;\n        recordlist[requestListCounter]._ipfs_hash = ipfs_hash;\n\n        // link the new block to the previous block\n        recordlist[requestListCounter]._prev = properties[_prop_id]._trans_id;\n\n        // point the new request\n        properties[_prop_id]._trans_id = requestListCounter;\n\n        notify(requestListCounter);\n\n        return (requestListCounter++);\n    }\n\n\n    // add new property on list\n    function addProperty(address _userId, uint _req_id) public {\n        // add new property on top of the list\n        users[_userId].properties[users[_userId].propertiesTop]._next = _req_id;\n\n        // link the top block with the previous block\n        users[_userId].properties[_req_id]._prev = users[_userId].propertiesTop;\n\n        // mark the top as the end block\n        users[_userId].properties[_req_id]._next = 0;\n\n        // set the pointer to the top block / latest block\n        users[_userId].propertiesTop = _req_id;\n    }\n\n    function removeProperty(address _userId, uint _req_id) public {\n        // sift the pointer to the previous block if - removing the top block\n        if(users[_userId].propertiesTop == _req_id) users[_userId].propertiesTop = users[_userId].properties[_req_id]._prev;\n\n        // link the top block with the previous block\n        users[_userId].properties[users[_userId].properties[_req_id]._prev]._next = users[_userId].properties[_req_id]._next;\n        users[_userId].properties[users[_userId].properties[_req_id]._next]._prev = users[_userId].properties[_req_id]._prev;\n\n        // clear the current block\n        users[_userId].properties[_req_id]._next = 0;\n        users[_userId].properties[_req_id]._prev = 0;\n    }\n\n\n\n\n    // notify admin\n    function notify(uint _req_id) public {\n\n        // add the pointer of the transection request to the requestList\n        requestList[requestListTop]._next = _req_id;\n\n        // link the top requestList block to the previous block\n        requestList[_req_id]._prev = requestListTop;\n\n        // make the top pointer as the end of the list\n        requestList[_req_id]._next = 0;\n\n        // save the pointer to the top of the requestList\n        requestListTop = _req_id;\n    }\n\n\n\n    // Views\n    // get User information\n    function getUser(address _userId) view public returns(string memory, uint, UserType) {\n        // return username, aadhaar-number, user-domain\n        return (users[_userId].name, users[_userId].adr, users[_userId].utype);\n    }\n\n    function viewPropertyDetail(uint _prop_id)view public returns(string memory, uint) {\n        return (properties[_prop_id]._info, properties[_prop_id]._trans_id);\n    }\n\n    function viewTranction(uint _trans_id)view public returns(address, address, uint, uint, TranctionState, address, string memory) {\n        return (recordlist[_trans_id]._from, recordlist[_trans_id]._to, recordlist[_trans_id]._prev, recordlist[_trans_id]._prop, recordlist[_trans_id]._state,  recordlist[_trans_id].approved_by, recordlist[_trans_id]._ipfs_hash);\n    }\n\n\n\n\n    ////////////////////////////////////////////////////////////\n    // approve the Tranction request\n    function approve(uint256 _record_id) public isAdmin {\n        recordlist[_record_id]._state = TranctionState.approved;\n        recordlist[_record_id].approved_by = msg.sender;\n\n        // remove notification from user\n        removePropertyRequest(recordlist[_record_id]._to, _record_id);\n\n        // remove notification from admin\n        removeNotification(_record_id);\n\n        addProperty(recordlist[_record_id]._to, _record_id);\n        removeProperty(recordlist[_record_id]._to, _record_id);\n\n    }\n\n    // reject the Tranction request\n    function reject(uint256 _record_id) public isAdmin {\n        removeProperty(recordlist[_record_id]._to, _record_id);\n\n        // remove notification from user\n        removePropertyRequest(recordlist[_record_id]._to, _record_id);\n\n        // remove notification from admin\n        removeNotification(_record_id);\n    }\n    ///////////////////////////////////////////////////////////\n\n    function removeNotification(uint _req_id) public {\n        // sift the pointer to the previous block if - removing the top block\n        if(requestListTop == _req_id) requestListTop = requestList[_req_id]._prev;\n\n        // link the top block with the previous block\n        requestList[requestList[_req_id]._next]._prev = requestList[_req_id]._prev;\n        requestList[requestList[_req_id]._prev]._next = requestList[_req_id]._next;\n\n        // clear the current block\n        requestList[_req_id]._next = 0;\n        requestList[_req_id]._prev = 0;\n    }\n\n\n    // send one property id at a time { default is 0 }\n    function getNextPropertyId(address _userId, uint _ptr) view public returns(uint) {\n        return users[_userId].properties[_ptr]._next;\n    }\n\n    // send one property id at a time { default is 0 }\n    function getNextRequestedPropertyId(address _userId, uint _ptr) view public returns(uint) {\n        return users[_userId].requestList[_ptr]._next;\n    }\n\n    // send one notification id at a time { default is 0 }\n    function getNextNotificationId(uint _ptr) view public returns(uint) {\n        return requestList[_ptr]._next;\n    }\n\n\n    // create new property\n    function createNewProperty(address _to, string memory _info, string memory _data_hash) public returns (uint) {\n        properties[property_counter] = PropertyDetail(_info, requestListCounter);\n\n        recordlist[requestListCounter] = Tranction(address(0), _to, uint(0), property_counter, TranctionState.approved, msg.sender, _data_hash);\n\n        addProperty(_to, requestListCounter);\n\n        requestListCounter++;\n\n        //return property_id\n        return (property_counter++);\n  }\n\n  function searchByAadhaar(uint _aadhaar) view public returns(address) {\n    return (aadhaarmap[_aadhaar]);\n  }\n\n}\n",
  "sourcePath": "/home/nikhil/Documents/SIH-master/contracts/Cicada_3301.sol",
  "compiler": {
    "name": "solc",
    "version": "0.5.0+commit.1d4f565a.Emscripten.clang"
  },
  "schemaVersion": "3.0.1",
  "updatedAt": "2019-05-03T07:13:09.145Z",
  "devdoc": {
    "methods": {}
  },
  "userdoc": {
    "methods": {
      "approve(uint256)": {
        "notice": "/////////////////////////////////////////////////////////"
      },
      "removeNotification(uint256)": {
        "notice": "////////////////////////////////////////////////////////"
      }
    }
  }
}