{
  "contractName": "newcicada",
  "abi": [
    {
      "constant": false,
      "inputs": [
        {
          "name": "_name",
          "type": "string"
        },
        {
          "name": "_adr",
          "type": "uint256"
        },
        {
          "name": "_userId",
          "type": "address"
        }
      ],
      "name": "addUser",
      "outputs": [],
      "payable": false,
      "stateMutability": "nonpayable",
      "type": "function",
      "signature": "0xbe80e0db"
    },
    {
      "constant": false,
      "inputs": [
        {
          "name": "_userId",
          "type": "address"
        },
        {
          "name": "_utype",
          "type": "uint8"
        }
      ],
      "name": "changeUserDomain",
      "outputs": [],
      "payable": false,
      "stateMutability": "nonpayable",
      "type": "function",
      "signature": "0xffa74ddc"
    },
    {
      "constant": false,
      "inputs": [
        {
          "name": "_buyer_id",
          "type": "address"
        },
        {
          "name": "_prop_id",
          "type": "uint256"
        },
        {
          "name": "ipfs_hash",
          "type": "string"
        }
      ],
      "name": "addPropertyRequest",
      "outputs": [],
      "payable": false,
      "stateMutability": "nonpayable",
      "type": "function",
      "signature": "0xf750cb61"
    },
    {
      "constant": false,
      "inputs": [
        {
          "name": "_from_address",
          "type": "address"
        },
        {
          "name": "_to_address",
          "type": "address"
        },
        {
          "name": "_prop_id",
          "type": "uint256"
        },
        {
          "name": "ipfs_hash",
          "type": "string"
        }
      ],
      "name": "addRecord",
      "outputs": [
        {
          "name": "",
          "type": "uint256"
        }
      ],
      "payable": false,
      "stateMutability": "nonpayable",
      "type": "function",
      "signature": "0x549d2fa3"
    },
    {
      "constant": false,
      "inputs": [
        {
          "name": "_userId",
          "type": "address"
        },
        {
          "name": "_req_id",
          "type": "uint256"
        }
      ],
      "name": "addProperty",
      "outputs": [],
      "payable": false,
      "stateMutability": "nonpayable",
      "type": "function",
      "signature": "0xbc1dfa69"
    },
    {
      "constant": false,
      "inputs": [
        {
          "name": "_userId",
          "type": "address"
        },
        {
          "name": "_req_id",
          "type": "uint256"
        }
      ],
      "name": "removePropertyRequest",
      "outputs": [],
      "payable": false,
      "stateMutability": "nonpayable",
      "type": "function",
      "signature": "0x65f870f8"
    },
    {
      "constant": false,
      "inputs": [
        {
          "name": "_userId",
          "type": "address"
        },
        {
          "name": "_req_id",
          "type": "uint256"
        }
      ],
      "name": "removeProperty",
      "outputs": [],
      "payable": false,
      "stateMutability": "nonpayable",
      "type": "function",
      "signature": "0xe81e9ab9"
    },
    {
      "constant": false,
      "inputs": [
        {
          "name": "admin_id",
          "type": "address"
        },
        {
          "name": "_req_id",
          "type": "uint256"
        }
      ],
      "name": "notify",
      "outputs": [],
      "payable": false,
      "stateMutability": "nonpayable",
      "type": "function",
      "signature": "0x25fda176"
    },
    {
      "constant": true,
      "inputs": [
        {
          "name": "_userId",
          "type": "address"
        }
      ],
      "name": "getUser",
      "outputs": [
        {
          "name": "",
          "type": "string"
        },
        {
          "name": "",
          "type": "uint256"
        },
        {
          "name": "",
          "type": "uint8"
        }
      ],
      "payable": false,
      "stateMutability": "view",
      "type": "function",
      "signature": "0x6f77926b"
    },
    {
      "constant": true,
      "inputs": [
        {
          "name": "_prop_id",
          "type": "uint256"
        }
      ],
      "name": "viewPropertyDetail",
      "outputs": [
        {
          "name": "",
          "type": "string"
        },
        {
          "name": "",
          "type": "uint256"
        }
      ],
      "payable": false,
      "stateMutability": "view",
      "type": "function",
      "signature": "0xa7e54d71"
    },
    {
      "constant": true,
      "inputs": [
        {
          "name": "_trans_id",
          "type": "uint256"
        }
      ],
      "name": "getTransectionSender",
      "outputs": [
        {
          "name": "",
          "type": "address"
        }
      ],
      "payable": false,
      "stateMutability": "view",
      "type": "function",
      "signature": "0x2a4dfe3f"
    },
    {
      "constant": true,
      "inputs": [
        {
          "name": "_trans_id",
          "type": "uint256"
        }
      ],
      "name": "getTransectionTime",
      "outputs": [
        {
          "name": "",
          "type": "uint256"
        }
      ],
      "payable": false,
      "stateMutability": "view",
      "type": "function",
      "signature": "0x032da290"
    },
    {
      "constant": true,
      "inputs": [
        {
          "name": "_trans_id",
          "type": "uint256"
        }
      ],
      "name": "getTransectionTo",
      "outputs": [
        {
          "name": "",
          "type": "address"
        }
      ],
      "payable": false,
      "stateMutability": "view",
      "type": "function",
      "signature": "0x230be2af"
    },
    {
      "constant": true,
      "inputs": [
        {
          "name": "_trans_id",
          "type": "uint256"
        }
      ],
      "name": "getTransectionPrev",
      "outputs": [
        {
          "name": "",
          "type": "uint256"
        }
      ],
      "payable": false,
      "stateMutability": "view",
      "type": "function",
      "signature": "0xbaca500a"
    },
    {
      "constant": true,
      "inputs": [
        {
          "name": "_trans_id",
          "type": "uint256"
        }
      ],
      "name": "getTransectionProp",
      "outputs": [
        {
          "name": "",
          "type": "uint256"
        }
      ],
      "payable": false,
      "stateMutability": "view",
      "type": "function",
      "signature": "0x8ac3912e"
    },
    {
      "constant": true,
      "inputs": [
        {
          "name": "_trans_id",
          "type": "uint256"
        }
      ],
      "name": "getTransectionApproveInfo",
      "outputs": [
        {
          "name": "",
          "type": "address"
        },
        {
          "name": "",
          "type": "address"
        },
        {
          "name": "",
          "type": "uint8"
        },
        {
          "name": "",
          "type": "uint8"
        }
      ],
      "payable": false,
      "stateMutability": "view",
      "type": "function",
      "signature": "0xa7de6602"
    },
    {
      "constant": true,
      "inputs": [
        {
          "name": "_trans_id",
          "type": "uint256"
        }
      ],
      "name": "getTransectionHashAndTime",
      "outputs": [
        {
          "name": "",
          "type": "string"
        },
        {
          "name": "",
          "type": "uint256"
        }
      ],
      "payable": false,
      "stateMutability": "view",
      "type": "function",
      "signature": "0xc1733f4f"
    },
    {
      "constant": false,
      "inputs": [
        {
          "name": "_record_id",
          "type": "uint256"
        }
      ],
      "name": "approve",
      "outputs": [],
      "payable": false,
      "stateMutability": "nonpayable",
      "type": "function",
      "signature": "0xb759f954"
    },
    {
      "constant": false,
      "inputs": [
        {
          "name": "_record_id",
          "type": "uint256"
        }
      ],
      "name": "reject",
      "outputs": [],
      "payable": false,
      "stateMutability": "nonpayable",
      "type": "function",
      "signature": "0xb8adaa11"
    },
    {
      "constant": false,
      "inputs": [
        {
          "name": "admin_id",
          "type": "address"
        },
        {
          "name": "_req_id",
          "type": "uint256"
        }
      ],
      "name": "removeNotification",
      "outputs": [],
      "payable": false,
      "stateMutability": "nonpayable",
      "type": "function",
      "signature": "0x6e9e3871"
    },
    {
      "constant": true,
      "inputs": [
        {
          "name": "_userId",
          "type": "address"
        },
        {
          "name": "_ptr",
          "type": "uint256"
        }
      ],
      "name": "getNextPropertyId",
      "outputs": [
        {
          "name": "",
          "type": "uint256"
        }
      ],
      "payable": false,
      "stateMutability": "view",
      "type": "function",
      "signature": "0xb2c308f8"
    },
    {
      "constant": true,
      "inputs": [
        {
          "name": "_userId",
          "type": "address"
        },
        {
          "name": "_ptr",
          "type": "uint256"
        }
      ],
      "name": "getNextRequestedPropertyId",
      "outputs": [
        {
          "name": "",
          "type": "uint256"
        }
      ],
      "payable": false,
      "stateMutability": "view",
      "type": "function",
      "signature": "0xf7ce23cb"
    },
    {
      "constant": true,
      "inputs": [
        {
          "name": "_ptr",
          "type": "uint256"
        }
      ],
      "name": "getNextNotificationId",
      "outputs": [
        {
          "name": "",
          "type": "uint256"
        }
      ],
      "payable": false,
      "stateMutability": "view",
      "type": "function",
      "signature": "0x9aca832e"
    },
    {
      "constant": false,
      "inputs": [
        {
          "name": "_to",
          "type": "address"
        },
        {
          "name": "_info",
          "type": "string"
        },
        {
          "name": "_data_hash",
          "type": "string"
        }
      ],
      "name": "createNewProperty",
      "outputs": [
        {
          "name": "",
          "type": "uint256"
        }
      ],
      "payable": false,
      "stateMutability": "nonpayable",
      "type": "function",
      "signature": "0x0e6a7846"
    }
  ],
  "bytecode": "0x608060405260008060006101000a81548160ff0219169083151502179055506001600555600160075534801561003457600080fd5b5061323c806100446000396000f30060806040526004361061013e576000357c0100000000000000000000000000000000000000000000000000000000900463ffffffff168063032da290146101435780630e6a784614610184578063230be2af1461026757806325fda176146102d45780632a4dfe3f14610321578063549d2fa31461038e57806365f870f8146104555780636e9e3871146104a25780636f77926b146104ef5780638ac3912e146105c75780639aca832e14610608578063a7de660214610649578063a7e54d7114610713578063b2c308f8146107c0578063b759f95414610821578063b8adaa111461084e578063baca500a1461087b578063bc1dfa69146108bc578063be80e0db14610909578063c1733f4f1461099c578063e81e9ab914610a49578063f750cb6114610a96578063f7ce23cb14610b29578063ffa74ddc14610b8a575b600080fd5b34801561014f57600080fd5b5061016e60048036038101908080359060200190929190505050610bda565b6040518082815260200191505060405180910390f35b34801561019057600080fd5b50610251600480360381019080803573ffffffffffffffffffffffffffffffffffffffff169060200190929190803590602001908201803590602001908080601f0160208091040260200160405190810160405280939291908181526020018383808284378201915050505050509192919290803590602001908201803590602001908080601f0160208091040260200160405190810160405280939291908181526020018383808284378201915050505050509192919290505050610bfa565b6040518082815260200191505060405180910390f35b34801561027357600080fd5b5061029260048036038101908080359060200190929190505050610d5b565b604051808273ffffffffffffffffffffffffffffffffffffffff1673ffffffffffffffffffffffffffffffffffffffff16815260200191505060405180910390f35b3480156102e057600080fd5b5061031f600480360381019080803573ffffffffffffffffffffffffffffffffffffffff16906020019092919080359060200190929190505050610d9b565b005b34801561032d57600080fd5b5061034c60048036038101908080359060200190929190505050610f7c565b604051808273ffffffffffffffffffffffffffffffffffffffff1673ffffffffffffffffffffffffffffffffffffffff16815260200191505060405180910390f35b34801561039a57600080fd5b5061043f600480360381019080803573ffffffffffffffffffffffffffffffffffffffff169060200190929190803573ffffffffffffffffffffffffffffffffffffffff16906020019092919080359060200190929190803590602001908201803590602001908080601f0160208091040260200160405190810160405280939291908181526020018383808284378201915050505050509192919290505050610fbc565b6040518082815260200191505060405180910390f35b34801561046157600080fd5b506104a0600480360381019080803573ffffffffffffffffffffffffffffffffffffffff169060200190929190803590602001909291905050506111c1565b005b3480156104ae57600080fd5b506104ed600480360381019080803573ffffffffffffffffffffffffffffffffffffffff16906020019092919080359060200190929190505050611573565b005b3480156104fb57600080fd5b50610530600480360381019080803573ffffffffffffffffffffffffffffffffffffffff169060200190929190505050611925565b604051808060200184815260200183600281111561054a57fe5b60ff168152602001828103825285818151815260200191508051906020019080838360005b8381101561058a57808201518184015260208101905061056f565b50505050905090810190601f1680156105b75780820380516001836020036101000a031916815260200191505b5094505050505060405180910390f35b3480156105d357600080fd5b506105f260048036038101908080359060200190929190505050611aa8565b6040518082815260200191505060405180910390f35b34801561061457600080fd5b5061063360048036038101908080359060200190929190505050611ac8565b6040518082815260200191505060405180910390f35b34801561065557600080fd5b5061067460048036038101908080359060200190929190505050611b28565b604051808573ffffffffffffffffffffffffffffffffffffffff1673ffffffffffffffffffffffffffffffffffffffff1681526020018473ffffffffffffffffffffffffffffffffffffffff1673ffffffffffffffffffffffffffffffffffffffff1681526020018360028111156106e857fe5b60ff1681526020018260028111156106fc57fe5b60ff16815260200194505050505060405180910390f35b34801561071f57600080fd5b5061073e60048036038101908080359060200190929190505050611bf3565b6040518080602001838152602001828103825284818151815260200191508051906020019080838360005b83811015610784578082015181840152602081019050610769565b50505050905090810190601f1680156107b15780820380516001836020036101000a031916815260200191505b50935050505060405180910390f35b3480156107cc57600080fd5b5061080b600480360381019080803573ffffffffffffffffffffffffffffffffffffffff16906020019092919080359060200190929190505050611cc9565b6040518082815260200191505060405180910390f35b34801561082d57600080fd5b5061084c60048036038101908080359060200190929190505050611d2a565b005b34801561085a57600080fd5b506108796004803603810190808035906020019092919050505061201b565b005b34801561088757600080fd5b506108a660048036038101908080359060200190929190505050612186565b6040518082815260200191505060405180910390f35b3480156108c857600080fd5b50610907600480360381019080803573ffffffffffffffffffffffffffffffffffffffff169060200190929190803590602001909291905050506121a6565b005b34801561091557600080fd5b5061099a600480360381019080803590602001908201803590602001908080601f016020809104026020016040519081016040528093929190818152602001838380828437820191505050505050919291929080359060200190929190803573ffffffffffffffffffffffffffffffffffffffff169060200190929190505050612387565b005b3480156109a857600080fd5b506109c76004803603810190808035906020019092919050505061272e565b6040518080602001838152602001828103825284818151815260200191508051906020019080838360005b83811015610a0d5780820151818401526020810190506109f2565b50505050905090810190601f168015610a3a5780820380516001836020036101000a031916815260200191505b50935050505060405180910390f35b348015610a5557600080fd5b50610a94600480360381019080803573ffffffffffffffffffffffffffffffffffffffff16906020019092919080359060200190929190505050612804565b005b348015610aa257600080fd5b50610b27600480360381019080803573ffffffffffffffffffffffffffffffffffffffff16906020019092919080359060200190929190803590602001908201803590602001908080601f0160208091040260200160405190810160405280939291908181526020018383808284378201915050505050509192919290505050612bb6565b005b348015610b3557600080fd5b50610b74600480360381019080803573ffffffffffffffffffffffffffffffffffffffff16906020019092919080359060200190929190505050612da9565b6040518082815260200191505060405180910390f35b348015610b9657600080fd5b50610bd8600480360381019080803573ffffffffffffffffffffffffffffffffffffffff169060200190929190803560ff169060200190929190505050612e0a565b005b600060066000838152602001908152602001600020600701549050919050565b600060408051908101604052808481526020016007548152506004600060055481526020019081526020016000206000820151816000019080519060200190610c449291906130eb565b50602082015181600101559050508360066000600754815260200190815260200160002060010160006101000a81548173ffffffffffffffffffffffffffffffffffffffff021916908373ffffffffffffffffffffffffffffffffffffffff16021790555060055460066000600754815260200190815260200160002060030181905550610cd9600380549050600554612f04565b816006600060075481526020019081526020016000206006019080519060200190610d0592919061316b565b504260066000600754815260200190815260200160002060070181905550610d2f846007546121a6565b600760008154809291906001019190505550600560008154809291906001019190505590509392505050565b60006006600083815260200190815260200160002060010160009054906101000a900473ffffffffffffffffffffffffffffffffffffffff169050919050565b80600160008473ffffffffffffffffffffffffffffffffffffffff1673ffffffffffffffffffffffffffffffffffffffff1681526020019081526020016000206007016000600160008673ffffffffffffffffffffffffffffffffffffffff1673ffffffffffffffffffffffffffffffffffffffff16815260200190815260200160002060080154815260200190815260200160002060010181905550600160008373ffffffffffffffffffffffffffffffffffffffff1673ffffffffffffffffffffffffffffffffffffffff16815260200190815260200160002060060154600160008473ffffffffffffffffffffffffffffffffffffffff1673ffffffffffffffffffffffffffffffffffffffff1681526020019081526020016000206007016000838152602001908152602001600020600001819055506000600160008473ffffffffffffffffffffffffffffffffffffffff1673ffffffffffffffffffffffffffffffffffffffff16815260200190815260200160002060070160008381526020019081526020016000206001018190555080600160008473ffffffffffffffffffffffffffffffffffffffff1673ffffffffffffffffffffffffffffffffffffffff168152602001908152602001600020600801819055505050565b60006006600083815260200190815260200160002060000160009054906101000a900473ffffffffffffffffffffffffffffffffffffffff169050919050565b60008460066000600754815260200190815260200160002060000160006101000a81548173ffffffffffffffffffffffffffffffffffffffff021916908373ffffffffffffffffffffffffffffffffffffffff1602179055508360066000600754815260200190815260200160002060010160006101000a81548173ffffffffffffffffffffffffffffffffffffffff021916908373ffffffffffffffffffffffffffffffffffffffff1602179055508260066000600754815260200190815260200160002060030181905550600060066000600754815260200190815260200160002060050160146101000a81548160ff021916908360028111156110be57fe5b0217905550600060066000600754815260200190815260200160002060050160156101000a81548160ff021916908360028111156110f857fe5b021790555081600660006007548152602001908152602001600020600601908051906020019061112992919061316b565b50426006600060075481526020019081526020016000206007018190555060046000848152602001908152602001600020600101546006600060075481526020019081526020016000206002018190555060075460046000858152602001908152602001600020600101819055506111a660038054905084612f04565b60076000815480929190600101919050559050949350505050565b80600160008473ffffffffffffffffffffffffffffffffffffffff1673ffffffffffffffffffffffffffffffffffffffff1681526020019081526020016000206006015414156112a957600160008373ffffffffffffffffffffffffffffffffffffffff1673ffffffffffffffffffffffffffffffffffffffff168152602001908152602001600020600501600082815260200190815260200160002060000154600160008473ffffffffffffffffffffffffffffffffffffffff1673ffffffffffffffffffffffffffffffffffffffff168152602001908152602001600020600601819055505b600160008373ffffffffffffffffffffffffffffffffffffffff1673ffffffffffffffffffffffffffffffffffffffff168152602001908152602001600020600501600082815260200190815260200160002060010154600160008473ffffffffffffffffffffffffffffffffffffffff1673ffffffffffffffffffffffffffffffffffffffff1681526020019081526020016000206005016000600160008673ffffffffffffffffffffffffffffffffffffffff1673ffffffffffffffffffffffffffffffffffffffff168152602001908152602001600020600501600085815260200190815260200160002060000154815260200190815260200160002060010181905550600160008373ffffffffffffffffffffffffffffffffffffffff1673ffffffffffffffffffffffffffffffffffffffff168152602001908152602001600020600501600082815260200190815260200160002060000154600160008473ffffffffffffffffffffffffffffffffffffffff1673ffffffffffffffffffffffffffffffffffffffff1681526020019081526020016000206005016000600160008673ffffffffffffffffffffffffffffffffffffffff1673ffffffffffffffffffffffffffffffffffffffff1681526020019081526020016000206005016000858152602001908152602001600020600101548152602001908152602001600020600001819055506000600160008473ffffffffffffffffffffffffffffffffffffffff1673ffffffffffffffffffffffffffffffffffffffff1681526020019081526020016000206005016000838152602001908152602001600020600101819055506000600160008473ffffffffffffffffffffffffffffffffffffffff1673ffffffffffffffffffffffffffffffffffffffff1681526020019081526020016000206005016000838152602001908152602001600020600001819055505050565b80600160008473ffffffffffffffffffffffffffffffffffffffff1673ffffffffffffffffffffffffffffffffffffffff16815260200190815260200160002060080154141561165b57600160008373ffffffffffffffffffffffffffffffffffffffff1673ffffffffffffffffffffffffffffffffffffffff168152602001908152602001600020600701600082815260200190815260200160002060000154600160008473ffffffffffffffffffffffffffffffffffffffff1673ffffffffffffffffffffffffffffffffffffffff168152602001908152602001600020600801819055505b600160008373ffffffffffffffffffffffffffffffffffffffff1673ffffffffffffffffffffffffffffffffffffffff168152602001908152602001600020600701600082815260200190815260200160002060000154600160008473ffffffffffffffffffffffffffffffffffffffff1673ffffffffffffffffffffffffffffffffffffffff1681526020019081526020016000206007016000600160008673ffffffffffffffffffffffffffffffffffffffff1673ffffffffffffffffffffffffffffffffffffffff168152602001908152602001600020600701600085815260200190815260200160002060010154815260200190815260200160002060000181905550600160008373ffffffffffffffffffffffffffffffffffffffff1673ffffffffffffffffffffffffffffffffffffffff168152602001908152602001600020600701600082815260200190815260200160002060010154600160008473ffffffffffffffffffffffffffffffffffffffff1673ffffffffffffffffffffffffffffffffffffffff1681526020019081526020016000206007016000600160008673ffffffffffffffffffffffffffffffffffffffff1673ffffffffffffffffffffffffffffffffffffffff1681526020019081526020016000206007016000858152602001908152602001600020600001548152602001908152602001600020600101819055506000600160008473ffffffffffffffffffffffffffffffffffffffff1673ffffffffffffffffffffffffffffffffffffffff1681526020019081526020016000206007016000838152602001908152602001600020600001819055506000600160008473ffffffffffffffffffffffffffffffffffffffff1673ffffffffffffffffffffffffffffffffffffffff1681526020019081526020016000206007016000838152602001908152602001600020600101819055505050565b6060600080600160008573ffffffffffffffffffffffffffffffffffffffff1673ffffffffffffffffffffffffffffffffffffffff168152602001908152602001600020600001600160008673ffffffffffffffffffffffffffffffffffffffff1673ffffffffffffffffffffffffffffffffffffffff16815260200190815260200160002060010154600160008773ffffffffffffffffffffffffffffffffffffffff1673ffffffffffffffffffffffffffffffffffffffff16815260200190815260200160002060020160009054906101000a900460ff16828054600181600116156101000203166002900480601f016020809104026020016040519081016040528092919081815260200182805460018160011615610100020316600290048015611a945780601f10611a6957610100808354040283529160200191611a94565b820191906000526020600020905b815481529060010190602001808311611a7757829003601f168201915b505050505092509250925092509193909250565b600060066000838152602001908152602001600020600301549050919050565b6000600160003373ffffffffffffffffffffffffffffffffffffffff1673ffffffffffffffffffffffffffffffffffffffff1681526020019081526020016000206007016000838152602001908152602001600020600101549050919050565b6000806000806006600086815260200190815260200160002060040160009054906101000a900473ffffffffffffffffffffffffffffffffffffffff166006600087815260200190815260200160002060050160009054906101000a900473ffffffffffffffffffffffffffffffffffffffff166006600088815260200190815260200160002060050160149054906101000a900460ff166006600089815260200190815260200160002060050160159054906101000a900460ff1693509350935093509193509193565b60606000600460008481526020019081526020016000206000016004600085815260200190815260200160002060010154818054600181600116156101000203166002900480601f016020809104026020016040519081016040528092919081815260200182805460018160011615610100020316600290048015611cb95780601f10611c8e57610100808354040283529160200191611cb9565b820191906000526020600020905b815481529060010190602001808311611c9c57829003601f168201915b5050505050915091509150915091565b6000600160008473ffffffffffffffffffffffffffffffffffffffff1673ffffffffffffffffffffffffffffffffffffffff168152602001908152602001600020600301600083815260200190815260200160002060010154905092915050565b60016002811115611d3757fe5b600160003373ffffffffffffffffffffffffffffffffffffffff1673ffffffffffffffffffffffffffffffffffffffff16815260200190815260200160002060020160009054906101000a900460ff166002811115611d9257fe5b1480611e025750600280811115611da557fe5b600160003373ffffffffffffffffffffffffffffffffffffffff1673ffffffffffffffffffffffffffffffffffffffff16815260200190815260200160002060020160009054906101000a900460ff166002811115611e0057fe5b145b15612018576006600082815260200190815260200160002060040160009054906101000a900473ffffffffffffffffffffffffffffffffffffffff1673ffffffffffffffffffffffffffffffffffffffff163373ffffffffffffffffffffffffffffffffffffffff161415611eaa5760016006600083815260200190815260200160002060050160146101000a81548160ff02191690836002811115611ea457fe5b02179055505b6006600082815260200190815260200160002060050160009054906101000a900473ffffffffffffffffffffffffffffffffffffffff1673ffffffffffffffffffffffffffffffffffffffff163373ffffffffffffffffffffffffffffffffffffffff161415611f4d5760016006600083815260200190815260200160002060050160156101000a81548160ff02191690836002811115611f4757fe5b02179055505b611f8d6006600083815260200190815260200160002060010160009054906101000a900473ffffffffffffffffffffffffffffffffffffffff16826111c1565b611f973382611573565b611fd76006600083815260200190815260200160002060010160009054906101000a900473ffffffffffffffffffffffffffffffffffffffff16826121a6565b6120176006600083815260200190815260200160002060010160009054906101000a900473ffffffffffffffffffffffffffffffffffffffff1682612804565b5b50565b6001600281111561202857fe5b600160003373ffffffffffffffffffffffffffffffffffffffff1673ffffffffffffffffffffffffffffffffffffffff16815260200190815260200160002060020160009054906101000a900460ff16600281111561208357fe5b14806120f3575060028081111561209657fe5b600160003373ffffffffffffffffffffffffffffffffffffffff1673ffffffffffffffffffffffffffffffffffffffff16815260200190815260200160002060020160009054906101000a900460ff1660028111156120f157fe5b145b15612183576121386006600083815260200190815260200160002060010160009054906101000a900473ffffffffffffffffffffffffffffffffffffffff1682612804565b6121786006600083815260200190815260200160002060010160009054906101000a900473ffffffffffffffffffffffffffffffffffffffff16826111c1565b6121823382611573565b5b50565b600060066000838152602001908152602001600020600201549050919050565b80600160008473ffffffffffffffffffffffffffffffffffffffff1673ffffffffffffffffffffffffffffffffffffffff1681526020019081526020016000206003016000600160008673ffffffffffffffffffffffffffffffffffffffff1673ffffffffffffffffffffffffffffffffffffffff16815260200190815260200160002060040154815260200190815260200160002060010181905550600160008373ffffffffffffffffffffffffffffffffffffffff1673ffffffffffffffffffffffffffffffffffffffff16815260200190815260200160002060040154600160008473ffffffffffffffffffffffffffffffffffffffff1673ffffffffffffffffffffffffffffffffffffffff1681526020019081526020016000206003016000838152602001908152602001600020600001819055506000600160008473ffffffffffffffffffffffffffffffffffffffff1673ffffffffffffffffffffffffffffffffffffffff16815260200190815260200160002060030160008381526020019081526020016000206001018190555080600160008473ffffffffffffffffffffffffffffffffffffffff1673ffffffffffffffffffffffffffffffffffffffff168152602001908152602001600020600401819055505050565b600082141580156123f75750600073ffffffffffffffffffffffffffffffffffffffff166002600084815260200190815260200160002060009054906101000a900473ffffffffffffffffffffffffffffffffffffffff1673ffffffffffffffffffffffffffffffffffffffff16145b156127295782600160008373ffffffffffffffffffffffffffffffffffffffff1673ffffffffffffffffffffffffffffffffffffffff168152602001908152602001600020600001908051906020019061245292919061316b565b5081600160008373ffffffffffffffffffffffffffffffffffffffff1673ffffffffffffffffffffffffffffffffffffffff168152602001908152602001600020600101819055506000600160008373ffffffffffffffffffffffffffffffffffffffff1673ffffffffffffffffffffffffffffffffffffffff16815260200190815260200160002060020160006101000a81548160ff021916908360028111156124f957fe5b02179055506000600160008373ffffffffffffffffffffffffffffffffffffffff1673ffffffffffffffffffffffffffffffffffffffff168152602001908152602001600020600601819055506000600160008373ffffffffffffffffffffffffffffffffffffffff1673ffffffffffffffffffffffffffffffffffffffff168152602001908152602001600020600401819055506000600160008373ffffffffffffffffffffffffffffffffffffffff1673ffffffffffffffffffffffffffffffffffffffff16815260200190815260200160002060080181905550806002600084815260200190815260200160002060006101000a81548173ffffffffffffffffffffffffffffffffffffffff021916908373ffffffffffffffffffffffffffffffffffffffff160217905550600015156000809054906101000a900460ff1615151415612728576002600160008373ffffffffffffffffffffffffffffffffffffffff1673ffffffffffffffffffffffffffffffffffffffff16815260200190815260200160002060020160006101000a81548160ff021916908360028111156126a257fe5b021790555060033390806001815401808255809150509060018203906000526020600020016000909192909190916101000a81548173ffffffffffffffffffffffffffffffffffffffff021916908373ffffffffffffffffffffffffffffffffffffffff1602179055505060016000806101000a81548160ff0219169083151502179055505b5b505050565b60606000600660008481526020019081526020016000206006016006600085815260200190815260200160002060070154818054600181600116156101000203166002900480601f0160208091040260200160405190810160405280929190818152602001828054600181600116156101000203166002900480156127f45780601f106127c9576101008083540402835291602001916127f4565b820191906000526020600020905b8154815290600101906020018083116127d757829003601f168201915b5050505050915091509150915091565b80600160008473ffffffffffffffffffffffffffffffffffffffff1673ffffffffffffffffffffffffffffffffffffffff1681526020019081526020016000206004015414156128ec57600160008373ffffffffffffffffffffffffffffffffffffffff1673ffffffffffffffffffffffffffffffffffffffff168152602001908152602001600020600301600082815260200190815260200160002060000154600160008473ffffffffffffffffffffffffffffffffffffffff1673ffffffffffffffffffffffffffffffffffffffff168152602001908152602001600020600401819055505b600160008373ffffffffffffffffffffffffffffffffffffffff1673ffffffffffffffffffffffffffffffffffffffff168152602001908152602001600020600301600082815260200190815260200160002060010154600160008473ffffffffffffffffffffffffffffffffffffffff1673ffffffffffffffffffffffffffffffffffffffff1681526020019081526020016000206003016000600160008673ffffffffffffffffffffffffffffffffffffffff1673ffffffffffffffffffffffffffffffffffffffff168152602001908152602001600020600301600085815260200190815260200160002060000154815260200190815260200160002060010181905550600160008373ffffffffffffffffffffffffffffffffffffffff1673ffffffffffffffffffffffffffffffffffffffff168152602001908152602001600020600301600082815260200190815260200160002060000154600160008473ffffffffffffffffffffffffffffffffffffffff1673ffffffffffffffffffffffffffffffffffffffff1681526020019081526020016000206003016000600160008673ffffffffffffffffffffffffffffffffffffffff1673ffffffffffffffffffffffffffffffffffffffff1681526020019081526020016000206003016000858152602001908152602001600020600101548152602001908152602001600020600001819055506000600160008473ffffffffffffffffffffffffffffffffffffffff1673ffffffffffffffffffffffffffffffffffffffff1681526020019081526020016000206003016000838152602001908152602001600020600101819055506000600160008473ffffffffffffffffffffffffffffffffffffffff1673ffffffffffffffffffffffffffffffffffffffff1681526020019081526020016000206003016000838152602001908152602001600020600001819055505050565b6000612bc433858585610fbc565b905080600160008673ffffffffffffffffffffffffffffffffffffffff1673ffffffffffffffffffffffffffffffffffffffff1681526020019081526020016000206005016000600160008873ffffffffffffffffffffffffffffffffffffffff1673ffffffffffffffffffffffffffffffffffffffff16815260200190815260200160002060060154815260200190815260200160002060010181905550600160008573ffffffffffffffffffffffffffffffffffffffff1673ffffffffffffffffffffffffffffffffffffffff16815260200190815260200160002060060154600160008673ffffffffffffffffffffffffffffffffffffffff1673ffffffffffffffffffffffffffffffffffffffff1681526020019081526020016000206005016000838152602001908152602001600020600001819055506000600160008673ffffffffffffffffffffffffffffffffffffffff1673ffffffffffffffffffffffffffffffffffffffff16815260200190815260200160002060050160008381526020019081526020016000206001018190555080600160008673ffffffffffffffffffffffffffffffffffffffff1673ffffffffffffffffffffffffffffffffffffffff1681526020019081526020016000206006018190555050505050565b6000600160008473ffffffffffffffffffffffffffffffffffffffff1673ffffffffffffffffffffffffffffffffffffffff168152602001908152602001600020600501600083815260200190815260200160002060010154905092915050565b600280811115612e1657fe5b600160003373ffffffffffffffffffffffffffffffffffffffff1673ffffffffffffffffffffffffffffffffffffffff16815260200190815260200160002060020160009054906101000a900460ff166002811115612e7157fe5b1415612f0057600280811115612e8357fe5b816002811115612e8f57fe5b14151515612e9c57600080fd5b80600160008473ffffffffffffffffffffffffffffffffffffffff1673ffffffffffffffffffffffffffffffffffffffff16815260200190815260200160002060020160006101000a81548160ff02191690836002811115612efa57fe5b02179055505b5050565b6000808342811515612f1257fe5b06915083428301811515612f2257fe5b06905080821415612f3f578360018301811515612f3b57fe5b0690505b600382815481101515612f4e57fe5b9060005260206000200160009054906101000a900473ffffffffffffffffffffffffffffffffffffffff1660066000600754815260200190815260200160002060040160006101000a81548173ffffffffffffffffffffffffffffffffffffffff021916908373ffffffffffffffffffffffffffffffffffffffff160217905550600381815481101515612fde57fe5b9060005260206000200160009054906101000a900473ffffffffffffffffffffffffffffffffffffffff1660066000600754815260200190815260200160002060050160006101000a81548173ffffffffffffffffffffffffffffffffffffffff021916908373ffffffffffffffffffffffffffffffffffffffff1602179055506130a260038381548110151561307157fe5b9060005260206000200160009054906101000a900473ffffffffffffffffffffffffffffffffffffffff1684610d9b565b6130e56003828154811015156130b457fe5b9060005260206000200160009054906101000a900473ffffffffffffffffffffffffffffffffffffffff1684610d9b565b50505050565b828054600181600116156101000203166002900490600052602060002090601f016020900481019282601f1061312c57805160ff191683800117855561315a565b8280016001018555821561315a579182015b8281111561315957825182559160200191906001019061313e565b5b50905061316791906131eb565b5090565b828054600181600116156101000203166002900490600052602060002090601f016020900481019282601f106131ac57805160ff19168380011785556131da565b828001600101855582156131da579182015b828111156131d95782518255916020019190600101906131be565b5b5090506131e791906131eb565b5090565b61320d91905b808211156132095760008160009055506001016131f1565b5090565b905600a165627a7a72305820cf6a70b0753d536a226d3b1146af4c05821b0ebbb4d63748208376a72e1362e30029",
  "source": "pragma solidity ^0.4.24;\n\n\ncontract newcicada {\n    \n\n    struct Obj {\n        uint _prev;\n        uint _next;\n    }\n\n    // define User\n    enum UserType {user, admin, super_admin}\n    struct Person {\n        string name;        // Name\n        uint adr;           // Aadhar number\n        UserType utype;     // User type\n\n        // Properties Associated with a user\n        mapping(uint => Obj) properties;\n        uint propertiesTop;\n\n        // Property buyRequest\n        mapping(uint => Obj) requestList;\n        uint requestListTop;\n\n        // Property buyRequest\n        mapping(uint => Obj) approvalRequest;\n        uint approvalRequestTop;\n    }\n\n\n    bool super_admin_created = false; // Create the first User as SuperAdmin\n    mapping(address => Person) users;\n    mapping(uint => address) aadhaarmap;\n    address[] admins;\n\n\n    // Property\n    // defination\n    struct PropertyDetail {\n        string _info;           // information about the property\n        uint _trans_id;         // Transaction id\n    }\n\n    // defination\n    // mapping all properties\n    mapping(uint => PropertyDetail) properties;\n    uint private property_counter = 1;\n\n    // Tranction\n    enum TransectionState {requested, approved, rejected}\n\n    // Tranction block\n    struct Transection {\n        address _from;          // sender\n        address _to;            // buyer\n        uint256 _prev;          // previous Tranction block id\n        uint256 _prop;          // property id { any property }\n\n        address approved_by1;\n        address approved_by2;\n\n        TransectionState _state1;  // state of Transection by first random admin\n        TransectionState _state2;  // state of Transection by second random admin\n\n\n        string _ipfs_hash;\n        uint256 _time;            // timestamp of Transection creation\n    }\n\n    // mapping all the Tranction records\n    mapping(uint256 => Transection) recordlist;\n    // mapping(uint256 => Obj) requestList;\n    // uint256 requestListTop = 0;\n    uint256 requestListCounter = 1;\n\n\n\n    // drver functions\n    // Admin require\n    modifier isAdmin() {\n        if(users[msg.sender].utype == UserType.admin || users[msg.sender].utype == UserType.super_admin)\n        _;\n    }\n    // Super Admin require\n    modifier isSuperAdmin() {\n        if(users[msg.sender].utype == UserType.super_admin)\n        _;\n    }\n\n    //User Logic\n    // adding the user with services\n    function addUser(string memory _name, uint _adr, address _userId) public {\n\n        // check if the user is previously registerd\n        if(_adr != uint(0) && aadhaarmap[_adr] == address(0)) {\n\n            users[_userId].name = _name;\n            users[_userId].adr = _adr;\n            users[_userId].utype = UserType.user;\n\n            // set initial pointers\n            users[_userId].requestListTop = 0;\n            users[_userId].propertiesTop = 0;\n            users[_userId].approvalRequestTop = 0;\n\n            aadhaarmap[_adr] = _userId;\n\n            // make the first user super admin\n            if(super_admin_created == false) {\n                 users[_userId].utype = UserType.super_admin;\n                 admins.push(msg.sender);\n                 super_admin_created = true;\n            }\n        }\n    }\n\n    function changeUserDomain(address _userId, UserType _utype) public isSuperAdmin {\n        require(_utype != UserType.super_admin);\n        users[_userId].utype = _utype;\n    }\n\n\n    // add property in requestList {if the user is requested to sell there property}\n    function addPropertyRequest(address _buyer_id, uint _prop_id, string memory ipfs_hash) public {\n        uint _req_id = addRecord(msg.sender, _buyer_id, _prop_id, ipfs_hash);\n\n        // add the pointer of the transection request to the requestList\n        users[_buyer_id].requestList[users[_buyer_id].requestListTop]._next = _req_id;\n\n        // link the top requestList block to the previous block\n        users[_buyer_id].requestList[_req_id]._prev = users[_buyer_id].requestListTop;\n\n        // make the top pointer as the end of the list\n        users[_buyer_id].requestList[_req_id]._next = 0;\n\n        // save the pointer to the top of the requestList\n        users[_buyer_id].requestListTop = _req_id;\n    }\n\n\n    // add new Tranction requested {Tranction requested! not a final Tranction}\n    function addRecord(address _from_address, address _to_address, uint256 _prop_id, string memory ipfs_hash) public returns(uint256) {\n        recordlist[requestListCounter]._from = _from_address;\n        recordlist[requestListCounter]._to = _to_address;\n        recordlist[requestListCounter]._prop = _prop_id;\n\n\n        recordlist[requestListCounter]._state1 = TransectionState.requested;\n        recordlist[requestListCounter]._state2 = TransectionState.requested;\n\n        recordlist[requestListCounter]._ipfs_hash = ipfs_hash;\n        recordlist[requestListCounter]._time = block.timestamp;\n\n        // link the new block to the previous block\n        recordlist[requestListCounter]._prev = properties[_prop_id]._trans_id;\n\n        // point the new request\n        properties[_prop_id]._trans_id = requestListCounter;\n\n\n        // select two random admins and send notification to them\n        random(admins.length, _prop_id);\n\n        // notify(requestListCounter);\n\n        return (requestListCounter++);\n    }\n\n    function random(uint adminCount, uint _prop_id) private {\n        uint one = block.timestamp % adminCount;\n        uint two = (one + block.timestamp) % adminCount;\n        if(one == two) two = (one + 1) % adminCount;\n\n        recordlist[requestListCounter].approved_by1 = admins[one];\n        recordlist[requestListCounter].approved_by2 = admins[two];\n\n        notify(admins[one], _prop_id);\n        notify(admins[two], _prop_id);\n\n   }\n\n   // add new property on list {}\n    function addProperty(address _userId, uint _req_id) public {\n        // add new property on top of the list\n        users[_userId].properties[users[_userId].propertiesTop]._next = _req_id;\n\n        // link the top block with the previous block\n        users[_userId].properties[_req_id]._prev = users[_userId].propertiesTop;\n\n        // mark the top as the end block\n        users[_userId].properties[_req_id]._next = 0;\n\n        // set the pointer to the top block / latest block\n        users[_userId].propertiesTop = _req_id;\n    }\n\n    // remove the property request from  the requestList\n    function removePropertyRequest(address _userId, uint _req_id) public {\n        // shift the pointer to the previous block if - removing the top block\n        if(users[_userId].requestListTop == _req_id) users[_userId].requestListTop = users[_userId].requestList[_req_id]._prev;\n\n        // link the previous and next block\n        users[_userId].requestList[users[_userId].requestList[_req_id]._prev]._next = users[_userId].requestList[_req_id]._next;\n        users[_userId].requestList[users[_userId].requestList[_req_id]._next]._prev = users[_userId].requestList[_req_id]._prev;\n\n        // clear the current block\n        users[_userId].requestList[_req_id]._next = 0;\n        users[_userId].requestList[_req_id]._prev = 0;\n    }\n\n\n    function removeProperty(address _userId, uint _req_id) public {\n        // sift the pointer to the previous block if - removing the top block\n        if(users[_userId].propertiesTop == _req_id) users[_userId].propertiesTop = users[_userId].properties[_req_id]._prev;\n\n        // link the top block with the previous block\n        users[_userId].properties[users[_userId].properties[_req_id]._prev]._next = users[_userId].properties[_req_id]._next;\n        users[_userId].properties[users[_userId].properties[_req_id]._next]._prev = users[_userId].properties[_req_id]._prev;\n\n        // clear the current block\n        users[_userId].properties[_req_id]._next = 0;\n        users[_userId].properties[_req_id]._prev = 0;\n    }\n\n\n    // notify admin\n    function notify(address admin_id, uint _req_id) public {\n\n        // add the pointer of the transection request to the requestList\n        users[admin_id].approvalRequest[users[admin_id].approvalRequestTop]._next = _req_id;\n\n        // link the top requestList block to the previous block\n        users[admin_id].approvalRequest[_req_id]._prev = users[admin_id].requestListTop;\n\n        // make the top pointer as the end of the list\n        users[admin_id].approvalRequest[_req_id]._next = 0;\n\n        // save the pointer to the top of the requestList\n        users[admin_id].approvalRequestTop = _req_id;\n    }\n\n\n    // Views\n    // get User information\n    function getUser(address _userId) view public returns(string memory, uint, UserType) {\n        // return username, aadhaar-number, user-domain\n        return (users[_userId].name, users[_userId].adr, users[_userId].utype);\n    }\n\n    function viewPropertyDetail(uint _prop_id)view public returns(string memory, uint) {\n        return (properties[_prop_id]._info, properties[_prop_id]._trans_id);\n    }\n\n\n    // function viewTranction(uint _trans_id)view public returns(address,address, uint256, uint256, address, address, TransectionState , TransectionState , string memory ) {\n    //     return (recordlist[_trans_id]._from, recordlist[_trans_id]._to, recordlist[_trans_id]._prev, recordlist[_trans_id]._prop, recordlist[_trans_id].approved_by1, recordlist[_trans_id].approved_by2, recordlist[_trans_id]._state1, recordlist[_trans_id]._state2, recordlist[_trans_id]._ipfs_hash);\n    // }\n\n    function getTransectionSender(uint256 _trans_id) view public returns(address){\n        return recordlist[_trans_id]._from;\n    }\n\n    function getTransectionTime(uint256 _trans_id) view public returns(uint256){\n        return recordlist[_trans_id]._time;\n    }\n\n    function getTransectionTo(uint256 _trans_id) view public returns(address){\n        return recordlist[_trans_id]._to;\n    }\n\n    function getTransectionPrev(uint256 _trans_id) view public returns(uint256){\n        return recordlist[_trans_id]._prev;\n    }\n\n    function getTransectionProp(uint256 _trans_id) view public returns(uint256){\n        return recordlist[_trans_id]._prop;\n    }\n\n    function getTransectionApproveInfo(uint256 _trans_id) view public returns(address, address, TransectionState, TransectionState){\n        return (recordlist[_trans_id].approved_by1, recordlist[_trans_id].approved_by2, recordlist[_trans_id]._state1, recordlist[_trans_id]._state2);\n    }\n\n    function getTransectionHashAndTime(uint256 _trans_id) view public returns(string memory, uint256){\n        return (recordlist[_trans_id]._ipfs_hash, recordlist[_trans_id]._time);\n    }\n\n    // approve the Tranction request\n    function approve(uint256 _record_id) public isAdmin {\n        if(msg.sender == recordlist[_record_id].approved_by1){\n            recordlist[_record_id]._state1 = TransectionState.approved;\n        }\n\n         if(msg.sender == recordlist[_record_id].approved_by2){\n            recordlist[_record_id]._state2 = TransectionState.approved;\n        }\n\n\n        // remove notification from user\n        removePropertyRequest(recordlist[_record_id]._to, _record_id);\n\n        // remove notification from admin\n        removeNotification(msg.sender, _record_id);\n\n        addProperty(recordlist[_record_id]._to, _record_id);\n        removeProperty(recordlist[_record_id]._to, _record_id);\n\n    }\n\n    // reject the Tranction request\n    function reject(uint256 _record_id) public isAdmin {\n        removeProperty(recordlist[_record_id]._to, _record_id);\n\n        // remove notification from user\n        removePropertyRequest(recordlist[_record_id]._to, _record_id);\n\n        // remove notification from admin\n        removeNotification(msg.sender, _record_id);\n    }\n    ///////////////////////////////////////////////////////////\n\n     function removeNotification(address admin_id, uint _req_id) public {\n        // sift the pointer to the previous block if - removing the top block\n        if(users[admin_id].approvalRequestTop == _req_id) users[admin_id].approvalRequestTop = users[admin_id].approvalRequest[_req_id]._prev;\n\n\n        // link the top block with the previous block\n        users[admin_id].approvalRequest[users[admin_id].approvalRequest[_req_id]._next]._prev = users[admin_id].approvalRequest[_req_id]._prev;\n        users[admin_id].approvalRequest[users[admin_id].approvalRequest[_req_id]._prev]._next = users[admin_id].approvalRequest[_req_id]._next;\n\n\n        // clear the current block\n        users[admin_id].approvalRequest[_req_id]._prev = 0;\n        users[admin_id].approvalRequest[_req_id]._next = 0;\n    }\n\n    // send one property id at a time { default is 0 }\n    function getNextPropertyId(address _userId, uint _ptr) view public returns(uint) {\n        return users[_userId].properties[_ptr]._next;\n    }\n\n    // send one property id at a time { default is 0 }\n    function getNextRequestedPropertyId(address _userId, uint _ptr) view public returns(uint) {\n        return users[_userId].requestList[_ptr]._next;\n    }\n\n    // send one notification id at a time { default is 0 }\n    function getNextNotificationId(uint _ptr) view public returns(uint) {\n        return users[msg.sender].approvalRequest[_ptr]._next;\n    }\n\n    // create new property\n    function createNewProperty(address _to, string memory _info, string memory _data_hash) public returns (uint) {\n        properties[property_counter] = PropertyDetail(_info, requestListCounter);\n\n        recordlist[requestListCounter]._to = _to;\n        recordlist[requestListCounter]._prop = property_counter;\n\n        random(admins.length, property_counter);\n\n        recordlist[requestListCounter]._ipfs_hash = _data_hash;\n        recordlist[requestListCounter]._time = block.timestamp;\n\n\n        addProperty(_to, requestListCounter);\n\n        requestListCounter++;\n\n        //return property_id\n        return (property_counter++);\n  }\n\n}\n",
  "sourcePath": "/home/nikhil/Documents/SIH-master/contracts/newcicada.sol",
  "compiler": {
    "name": "solc",
    "version": "0.4.24+commit.e67f0147.Emscripten.clang"
  },
  "schemaVersion": "3.0.1",
  "updatedAt": "2019-06-19T07:01:49.530Z",
  "devdoc": {
    "methods": {}
  },
  "userdoc": {
    "methods": {
      "removeNotification(address,uint256)": {
        "notice": "////////////////////////////////////////////////////////"
      }
    }
  }
}