{
  "contractName": "Transactions",
  "abi": [
    {
      "constant": false,
      "inputs": [
        {
          "name": "_userId",
          "type": "address"
        },
        {
          "name": "_req_id",
          "type": "uint256"
        }
      ],
      "name": "addPropertyRequest",
      "outputs": [],
      "payable": false,
      "stateMutability": "nonpayable",
      "type": "function",
      "signature": "0x52b0a5c5"
    },
    {
      "constant": false,
      "inputs": [
        {
          "name": "_userId",
          "type": "address"
        },
        {
          "name": "_req_id",
          "type": "uint256"
        }
      ],
      "name": "removePropertyRequest",
      "outputs": [],
      "payable": false,
      "stateMutability": "nonpayable",
      "type": "function",
      "signature": "0x65f870f8"
    },
    {
      "constant": true,
      "inputs": [
        {
          "name": "_userId",
          "type": "address"
        }
      ],
      "name": "getUser",
      "outputs": [
        {
          "name": "",
          "type": "string"
        },
        {
          "name": "",
          "type": "uint256"
        },
        {
          "name": "",
          "type": "uint8"
        }
      ],
      "payable": false,
      "stateMutability": "view",
      "type": "function",
      "signature": "0x6f77926b"
    },
    {
      "constant": true,
      "inputs": [
        {
          "name": "_userId",
          "type": "address"
        },
        {
          "name": "_ptr",
          "type": "uint256"
        }
      ],
      "name": "getNextPropertyId",
      "outputs": [
        {
          "name": "",
          "type": "uint256"
        }
      ],
      "payable": false,
      "stateMutability": "view",
      "type": "function",
      "signature": "0xb2c308f8"
    },
    {
      "constant": false,
      "inputs": [
        {
          "name": "_userId",
          "type": "address"
        },
        {
          "name": "_req_id",
          "type": "uint256"
        }
      ],
      "name": "addProperty",
      "outputs": [],
      "payable": false,
      "stateMutability": "nonpayable",
      "type": "function",
      "signature": "0xbc1dfa69"
    },
    {
      "constant": false,
      "inputs": [
        {
          "name": "_name",
          "type": "string"
        },
        {
          "name": "_adr",
          "type": "uint256"
        },
        {
          "name": "_userId",
          "type": "address"
        }
      ],
      "name": "addUser",
      "outputs": [],
      "payable": false,
      "stateMutability": "nonpayable",
      "type": "function",
      "signature": "0xbe80e0db"
    },
    {
      "constant": true,
      "inputs": [
        {
          "name": "_userId",
          "type": "address"
        },
        {
          "name": "_ptr",
          "type": "uint256"
        }
      ],
      "name": "getNextPropertyRequestId",
      "outputs": [
        {
          "name": "",
          "type": "uint256"
        }
      ],
      "payable": false,
      "stateMutability": "view",
      "type": "function",
      "signature": "0xc952aeeb"
    },
    {
      "constant": false,
      "inputs": [
        {
          "name": "_userId",
          "type": "address"
        },
        {
          "name": "_req_id",
          "type": "uint256"
        }
      ],
      "name": "removeProperty",
      "outputs": [],
      "payable": false,
      "stateMutability": "nonpayable",
      "type": "function",
      "signature": "0xe81e9ab9"
    },
    {
      "constant": false,
      "inputs": [
        {
          "name": "_userId",
          "type": "address"
        },
        {
          "name": "_utype",
          "type": "uint8"
        }
      ],
      "name": "changeUserDomain",
      "outputs": [],
      "payable": false,
      "stateMutability": "nonpayable",
      "type": "function",
      "signature": "0xffa74ddc"
    },
    {
      "inputs": [],
      "payable": false,
      "stateMutability": "nonpayable",
      "type": "constructor",
      "signature": "constructor"
    },
    {
      "anonymous": false,
      "inputs": [
        {
          "indexed": false,
          "name": "name",
          "type": "string"
        }
      ],
      "name": "newUserCreated",
      "type": "event",
      "signature": "0xbf0841295e5757b00556874341a77fd194e087edba4809f8685f7fcc9f4820f7"
    },
    {
      "constant": false,
      "inputs": [
        {
          "name": "_transactioRequestID",
          "type": "uint256"
        }
      ],
      "name": "approveTransaction",
      "outputs": [
        {
          "name": "",
          "type": "bool"
        }
      ],
      "payable": false,
      "stateMutability": "nonpayable",
      "type": "function",
      "signature": "0x242232d1"
    },
    {
      "constant": true,
      "inputs": [
        {
          "name": "_transactioRequestID",
          "type": "uint256"
        }
      ],
      "name": "getTransactionTrail",
      "outputs": [
        {
          "name": "",
          "type": "uint256"
        },
        {
          "name": "",
          "type": "address"
        },
        {
          "name": "",
          "type": "address"
        },
        {
          "name": "",
          "type": "uint256"
        },
        {
          "name": "",
          "type": "uint8"
        }
      ],
      "payable": false,
      "stateMutability": "view",
      "type": "function",
      "signature": "0x04745623"
    }
  ],
  "bytecode": "0x608060405260008060006101000a81548160ff02191690831515021790555034801561002a57600080fd5b5060016002819055506117b4806100426000396000f3fe6080604052600436106100af576000357c0100000000000000000000000000000000000000000000000000000000900463ffffffff16806304745623146100b4578063242232d11461018557806352b0a5c5146101d857806365f870f8146102335780636f77926b1461028e578063b2c308f814610374578063bc1dfa69146103e3578063be80e0db1461043e578063c952aeeb14610530578063e81e9ab91461059f578063ffa74ddc146105fa575b600080fd5b3480156100c057600080fd5b506100ed600480360360208110156100d757600080fd5b8101908080359060200190929190505050610658565b604051808681526020018573ffffffffffffffffffffffffffffffffffffffff1673ffffffffffffffffffffffffffffffffffffffff1681526020018473ffffffffffffffffffffffffffffffffffffffff1673ffffffffffffffffffffffffffffffffffffffff16815260200183815260200182600281111561016d57fe5b60ff1681526020019550505050505060405180910390f35b34801561019157600080fd5b506101be600480360360208110156101a857600080fd5b8101908080359060200190929190505050610733565b604051808215151515815260200191505060405180910390f35b3480156101e457600080fd5b50610231600480360360408110156101fb57600080fd5b81019080803573ffffffffffffffffffffffffffffffffffffffff169060200190929190803590602001909291905050506107e0565b005b34801561023f57600080fd5b5061028c6004803603604081101561025657600080fd5b81019080803573ffffffffffffffffffffffffffffffffffffffff169060200190929190803590602001909291905050506109c1565b005b34801561029a57600080fd5b506102dd600480360360208110156102b157600080fd5b81019080803573ffffffffffffffffffffffffffffffffffffffff169060200190929190505050610c6c565b60405180806020018481526020018360028111156102f757fe5b60ff168152602001828103825285818151815260200191508051906020019080838360005b8381101561033757808201518184015260208101905061031c565b50505050905090810190601f1680156103645780820380516001836020036101000a031916815260200191505b5094505050505060405180910390f35b34801561038057600080fd5b506103cd6004803603604081101561039757600080fd5b81019080803573ffffffffffffffffffffffffffffffffffffffff16906020019092919080359060200190929190505050610def565b6040518082815260200191505060405180910390f35b3480156103ef57600080fd5b5061043c6004803603604081101561040657600080fd5b81019080803573ffffffffffffffffffffffffffffffffffffffff16906020019092919080359060200190929190505050610e50565b005b34801561044a57600080fd5b5061052e6004803603606081101561046157600080fd5b810190808035906020019064010000000081111561047e57600080fd5b82018360208201111561049057600080fd5b803590602001918460018302840111640100000000831117156104b257600080fd5b91908080601f016020809104026020016040519081016040528093929190818152602001838380828437600081840152601f19601f82011690508083019250505050505050919291929080359060200190929190803573ffffffffffffffffffffffffffffffffffffffff169060200190929190505050611031565b005b34801561053c57600080fd5b506105896004803603604081101561055357600080fd5b81019080803573ffffffffffffffffffffffffffffffffffffffff16906020019092919080359060200190929190505050611302565b6040518082815260200191505060405180910390f35b3480156105ab57600080fd5b506105f8600480360360408110156105c257600080fd5b81019080803573ffffffffffffffffffffffffffffffffffffffff16906020019092919080359060200190929190505050611363565b005b34801561060657600080fd5b506106566004803603604081101561061d57600080fd5b81019080803573ffffffffffffffffffffffffffffffffffffffff169060200190929190803560ff16906020019092919050505061160e565b005b600080600080600060036000878152602001908152602001600020600001546003600088815260200190815260200160002060010160009054906101000a900473ffffffffffffffffffffffffffffffffffffffff166003600089815260200190815260200160002060020160009054906101000a900473ffffffffffffffffffffffffffffffffffffffff16600360008a815260200190815260200160002060030154600360008b815260200190815260200160002060040160009054906101000a900460ff169450945094509450945091939590929450565b600060028081111561074157fe5b600160003373ffffffffffffffffffffffffffffffffffffffff1673ffffffffffffffffffffffffffffffffffffffff16815260200190815260200160002060020160009054906101000a900460ff16600281111561079c57fe5b14156107db5760016003600084815260200190815260200160002060040160006101000a81548160ff021916908360028111156107d557fe5b02179055505b919050565b80600160008473ffffffffffffffffffffffffffffffffffffffff1673ffffffffffffffffffffffffffffffffffffffff1681526020019081526020016000206005016000600160008673ffffffffffffffffffffffffffffffffffffffff1673ffffffffffffffffffffffffffffffffffffffff16815260200190815260200160002060060154815260200190815260200160002060010181905550600160008373ffffffffffffffffffffffffffffffffffffffff1673ffffffffffffffffffffffffffffffffffffffff16815260200190815260200160002060060154600160008473ffffffffffffffffffffffffffffffffffffffff1673ffffffffffffffffffffffffffffffffffffffff1681526020019081526020016000206005016000838152602001908152602001600020600001819055506000600160008473ffffffffffffffffffffffffffffffffffffffff1673ffffffffffffffffffffffffffffffffffffffff16815260200190815260200160002060050160008381526020019081526020016000206001018190555080600160008473ffffffffffffffffffffffffffffffffffffffff1673ffffffffffffffffffffffffffffffffffffffff168152602001908152602001600020600601819055505050565b80600160008473ffffffffffffffffffffffffffffffffffffffff1673ffffffffffffffffffffffffffffffffffffffff168152602001908152602001600020600601541415610aa957600160008373ffffffffffffffffffffffffffffffffffffffff1673ffffffffffffffffffffffffffffffffffffffff168152602001908152602001600020600501600082815260200190815260200160002060000154600160008473ffffffffffffffffffffffffffffffffffffffff1673ffffffffffffffffffffffffffffffffffffffff168152602001908152602001600020600601819055505b600160008373ffffffffffffffffffffffffffffffffffffffff1673ffffffffffffffffffffffffffffffffffffffff168152602001908152602001600020600501600082815260200190815260200160002060010154600160008473ffffffffffffffffffffffffffffffffffffffff1673ffffffffffffffffffffffffffffffffffffffff1681526020019081526020016000206005016000600160008673ffffffffffffffffffffffffffffffffffffffff1673ffffffffffffffffffffffffffffffffffffffff1681526020019081526020016000206005016000858152602001908152602001600020600001548152602001908152602001600020600101819055506000600160008473ffffffffffffffffffffffffffffffffffffffff1673ffffffffffffffffffffffffffffffffffffffff1681526020019081526020016000206005016000838152602001908152602001600020600101819055506000600160008473ffffffffffffffffffffffffffffffffffffffff1673ffffffffffffffffffffffffffffffffffffffff1681526020019081526020016000206005016000838152602001908152602001600020600001819055505050565b6060600080600160008573ffffffffffffffffffffffffffffffffffffffff1673ffffffffffffffffffffffffffffffffffffffff168152602001908152602001600020600001600160008673ffffffffffffffffffffffffffffffffffffffff1673ffffffffffffffffffffffffffffffffffffffff16815260200190815260200160002060010154600160008773ffffffffffffffffffffffffffffffffffffffff1673ffffffffffffffffffffffffffffffffffffffff16815260200190815260200160002060020160009054906101000a900460ff16828054600181600116156101000203166002900480601f016020809104026020016040519081016040528092919081815260200182805460018160011615610100020316600290048015610ddb5780601f10610db057610100808354040283529160200191610ddb565b820191906000526020600020905b815481529060010190602001808311610dbe57829003601f168201915b505050505092509250925092509193909250565b6000600160008473ffffffffffffffffffffffffffffffffffffffff1673ffffffffffffffffffffffffffffffffffffffff168152602001908152602001600020600301600083815260200190815260200160002060010154905092915050565b80600160008473ffffffffffffffffffffffffffffffffffffffff1673ffffffffffffffffffffffffffffffffffffffff1681526020019081526020016000206003016000600160008673ffffffffffffffffffffffffffffffffffffffff1673ffffffffffffffffffffffffffffffffffffffff16815260200190815260200160002060040154815260200190815260200160002060010181905550600160008373ffffffffffffffffffffffffffffffffffffffff1673ffffffffffffffffffffffffffffffffffffffff16815260200190815260200160002060040154600160008473ffffffffffffffffffffffffffffffffffffffff1673ffffffffffffffffffffffffffffffffffffffff1681526020019081526020016000206003016000838152602001908152602001600020600001819055506000600160008473ffffffffffffffffffffffffffffffffffffffff1673ffffffffffffffffffffffffffffffffffffffff16815260200190815260200160002060030160008381526020019081526020016000206001018190555080600160008473ffffffffffffffffffffffffffffffffffffffff1673ffffffffffffffffffffffffffffffffffffffff168152602001908152602001600020600401819055505050565b6000600160008373ffffffffffffffffffffffffffffffffffffffff1673ffffffffffffffffffffffffffffffffffffffff1681526020019081526020016000206001015414156112fd577fbf0841295e5757b00556874341a77fd194e087edba4809f8685f7fcc9f4820f7836040518080602001828103825283818151815260200191508051906020019080838360005b838110156110de5780820151818401526020810190506110c3565b50505050905090810190601f16801561110b5780820380516001836020036101000a031916815260200191505b509250505060405180910390a182600160008373ffffffffffffffffffffffffffffffffffffffff1673ffffffffffffffffffffffffffffffffffffffff168152602001908152602001600020600001908051906020019061116e9291906116e3565b5081600160008373ffffffffffffffffffffffffffffffffffffffff1673ffffffffffffffffffffffffffffffffffffffff168152602001908152602001600020600101819055506000600160008373ffffffffffffffffffffffffffffffffffffffff1673ffffffffffffffffffffffffffffffffffffffff16815260200190815260200160002060020160006101000a81548160ff0219169083600281111561121557fe5b02179055506000600160008373ffffffffffffffffffffffffffffffffffffffff1673ffffffffffffffffffffffffffffffffffffffff16815260200190815260200160002060060181905550600015156000809054906101000a900460ff16151514156112fc576002600160008373ffffffffffffffffffffffffffffffffffffffff1673ffffffffffffffffffffffffffffffffffffffff16815260200190815260200160002060020160006101000a81548160ff021916908360028111156112dc57fe5b021790555060016000806101000a81548160ff0219169083151502179055505b5b505050565b6000600160008473ffffffffffffffffffffffffffffffffffffffff1673ffffffffffffffffffffffffffffffffffffffff168152602001908152602001600020600501600083815260200190815260200160002060010154905092915050565b80600160008473ffffffffffffffffffffffffffffffffffffffff1673ffffffffffffffffffffffffffffffffffffffff16815260200190815260200160002060040154141561144b57600160008373ffffffffffffffffffffffffffffffffffffffff1673ffffffffffffffffffffffffffffffffffffffff168152602001908152602001600020600301600082815260200190815260200160002060000154600160008473ffffffffffffffffffffffffffffffffffffffff1673ffffffffffffffffffffffffffffffffffffffff168152602001908152602001600020600401819055505b600160008373ffffffffffffffffffffffffffffffffffffffff1673ffffffffffffffffffffffffffffffffffffffff168152602001908152602001600020600301600082815260200190815260200160002060010154600160008473ffffffffffffffffffffffffffffffffffffffff1673ffffffffffffffffffffffffffffffffffffffff1681526020019081526020016000206003016000600160008673ffffffffffffffffffffffffffffffffffffffff1673ffffffffffffffffffffffffffffffffffffffff1681526020019081526020016000206003016000858152602001908152602001600020600001548152602001908152602001600020600101819055506000600160008473ffffffffffffffffffffffffffffffffffffffff1673ffffffffffffffffffffffffffffffffffffffff1681526020019081526020016000206003016000838152602001908152602001600020600101819055506000600160008473ffffffffffffffffffffffffffffffffffffffff1673ffffffffffffffffffffffffffffffffffffffff1681526020019081526020016000206003016000838152602001908152602001600020600001819055505050565b60028081111561161a57fe5b600160003373ffffffffffffffffffffffffffffffffffffffff1673ffffffffffffffffffffffffffffffffffffffff16815260200190815260200160002060020160009054906101000a900460ff16600281111561167557fe5b14156116df5780600160008473ffffffffffffffffffffffffffffffffffffffff1673ffffffffffffffffffffffffffffffffffffffff16815260200190815260200160002060020160006101000a81548160ff021916908360028111156116d957fe5b02179055505b5050565b828054600181600116156101000203166002900490600052602060002090601f016020900481019282601f1061172457805160ff1916838001178555611752565b82800160010185558215611752579182015b82811115611751578251825591602001919060010190611736565b5b50905061175f9190611763565b5090565b61178591905b80821115611781576000816000905550600101611769565b5090565b9056fea165627a7a72305820b5dfdf62ee1178fa650b9a81e7ecf2c3b93838767a70512224f29720668b29b70029",
  "source": "pragma solidity ^0.5.0;\n\nimport './User.sol';\nimport \"./Property.sol\";\n\ncontract Transactions is User {\n  //enumeration\n  enum TransactionStates{request, approved, reject}\n  // transaction\n  struct Transaction {\n    uint property_id;\n    address sender;\n    address receiver;\n    uint prev;\n    TransactionStates state;\n  }\n\n  uint transactionRequestID;\n  constructor() public {\n    transactionRequestID = 1;\n  }\n\n  // mapping all\n  mapping(uint => Transaction) final_tr;\n\n\n  //approve transactions\n  function approveTransaction(uint _transactioRequestID) public isSuperAdmin returns (bool){\n    final_tr[_transactioRequestID].state = TransactionStates.approved;\n  }\n\n\n  function getTransactionTrail(uint _transactioRequestID) view public returns (uint, address, address, uint, TransactionStates){\n    return (final_tr[_transactioRequestID].property_id, final_tr[_transactioRequestID].sender, final_tr[_transactioRequestID].receiver, final_tr[_transactioRequestID].prev, final_tr[_transactioRequestID].state);\n  }\n}\n",
  "sourcePath": "/home/nikhil/Documents/SIH-master/contracts/Transactions.sol",
  "compiler": {
    "name": "solc",
    "version": "0.5.0+commit.1d4f565a.Emscripten.clang"
  },
  "schemaVersion": "3.0.1",
  "updatedAt": "2019-05-03T07:13:07.960Z",
  "devdoc": {
    "methods": {}
  },
  "userdoc": {
    "methods": {}
  }
}