{
  "contractName": "User",
  "abi": [
    {
      "anonymous": false,
      "inputs": [
        {
          "indexed": false,
          "name": "name",
          "type": "string"
        }
      ],
      "name": "newUserCreated",
      "type": "event",
      "signature": "0xbf0841295e5757b00556874341a77fd194e087edba4809f8685f7fcc9f4820f7"
    },
    {
      "constant": false,
      "inputs": [
        {
          "name": "_name",
          "type": "string"
        },
        {
          "name": "_adr",
          "type": "uint256"
        },
        {
          "name": "_userId",
          "type": "address"
        }
      ],
      "name": "addUser",
      "outputs": [],
      "payable": false,
      "stateMutability": "nonpayable",
      "type": "function",
      "signature": "0xbe80e0db"
    },
    {
      "constant": true,
      "inputs": [
        {
          "name": "_userId",
          "type": "address"
        }
      ],
      "name": "getUser",
      "outputs": [
        {
          "name": "",
          "type": "string"
        },
        {
          "name": "",
          "type": "uint256"
        },
        {
          "name": "",
          "type": "uint8"
        }
      ],
      "payable": false,
      "stateMutability": "view",
      "type": "function",
      "signature": "0x6f77926b"
    },
    {
      "constant": false,
      "inputs": [
        {
          "name": "_userId",
          "type": "address"
        },
        {
          "name": "_utype",
          "type": "uint8"
        }
      ],
      "name": "changeUserDomain",
      "outputs": [],
      "payable": false,
      "stateMutability": "nonpayable",
      "type": "function",
      "signature": "0xffa74ddc"
    },
    {
      "constant": false,
      "inputs": [
        {
          "name": "_userId",
          "type": "address"
        },
        {
          "name": "_req_id",
          "type": "uint256"
        }
      ],
      "name": "addPropertyRequest",
      "outputs": [],
      "payable": false,
      "stateMutability": "nonpayable",
      "type": "function",
      "signature": "0x52b0a5c5"
    },
    {
      "constant": false,
      "inputs": [
        {
          "name": "_userId",
          "type": "address"
        },
        {
          "name": "_req_id",
          "type": "uint256"
        }
      ],
      "name": "removePropertyRequest",
      "outputs": [],
      "payable": false,
      "stateMutability": "nonpayable",
      "type": "function",
      "signature": "0x65f870f8"
    },
    {
      "constant": true,
      "inputs": [
        {
          "name": "_userId",
          "type": "address"
        },
        {
          "name": "_ptr",
          "type": "uint256"
        }
      ],
      "name": "getNextPropertyRequestId",
      "outputs": [
        {
          "name": "",
          "type": "uint256"
        }
      ],
      "payable": false,
      "stateMutability": "view",
      "type": "function",
      "signature": "0xc952aeeb"
    },
    {
      "constant": false,
      "inputs": [
        {
          "name": "_userId",
          "type": "address"
        },
        {
          "name": "_req_id",
          "type": "uint256"
        }
      ],
      "name": "addProperty",
      "outputs": [],
      "payable": false,
      "stateMutability": "nonpayable",
      "type": "function",
      "signature": "0xbc1dfa69"
    },
    {
      "constant": false,
      "inputs": [
        {
          "name": "_userId",
          "type": "address"
        },
        {
          "name": "_req_id",
          "type": "uint256"
        }
      ],
      "name": "removeProperty",
      "outputs": [],
      "payable": false,
      "stateMutability": "nonpayable",
      "type": "function",
      "signature": "0xe81e9ab9"
    },
    {
      "constant": true,
      "inputs": [
        {
          "name": "_userId",
          "type": "address"
        },
        {
          "name": "_ptr",
          "type": "uint256"
        }
      ],
      "name": "getNextPropertyId",
      "outputs": [
        {
          "name": "",
          "type": "uint256"
        }
      ],
      "payable": false,
      "stateMutability": "view",
      "type": "function",
      "signature": "0xb2c308f8"
    }
  ],
  "bytecode": "0x608060405260008060006101000a81548160ff02191690831515021790555034801561002a57600080fd5b506114f28061003a6000396000f3fe608060405260043610610099576000357c0100000000000000000000000000000000000000000000000000000000900463ffffffff16806352b0a5c51461009e57806365f870f8146100f95780636f77926b14610154578063b2c308f81461023a578063bc1dfa69146102a9578063be80e0db14610304578063c952aeeb146103f6578063e81e9ab914610465578063ffa74ddc146104c0575b600080fd5b3480156100aa57600080fd5b506100f7600480360360408110156100c157600080fd5b81019080803573ffffffffffffffffffffffffffffffffffffffff1690602001909291908035906020019092919050505061051e565b005b34801561010557600080fd5b506101526004803603604081101561011c57600080fd5b81019080803573ffffffffffffffffffffffffffffffffffffffff169060200190929190803590602001909291905050506106ff565b005b34801561016057600080fd5b506101a36004803603602081101561017757600080fd5b81019080803573ffffffffffffffffffffffffffffffffffffffff1690602001909291905050506109aa565b60405180806020018481526020018360028111156101bd57fe5b60ff168152602001828103825285818151815260200191508051906020019080838360005b838110156101fd5780820151818401526020810190506101e2565b50505050905090810190601f16801561022a5780820380516001836020036101000a031916815260200191505b5094505050505060405180910390f35b34801561024657600080fd5b506102936004803603604081101561025d57600080fd5b81019080803573ffffffffffffffffffffffffffffffffffffffff16906020019092919080359060200190929190505050610b2d565b6040518082815260200191505060405180910390f35b3480156102b557600080fd5b50610302600480360360408110156102cc57600080fd5b81019080803573ffffffffffffffffffffffffffffffffffffffff16906020019092919080359060200190929190505050610b8e565b005b34801561031057600080fd5b506103f46004803603606081101561032757600080fd5b810190808035906020019064010000000081111561034457600080fd5b82018360208201111561035657600080fd5b8035906020019184600183028401116401000000008311171561037857600080fd5b91908080601f016020809104026020016040519081016040528093929190818152602001838380828437600081840152601f19601f82011690508083019250505050505050919291929080359060200190929190803573ffffffffffffffffffffffffffffffffffffffff169060200190929190505050610d6f565b005b34801561040257600080fd5b5061044f6004803603604081101561041957600080fd5b81019080803573ffffffffffffffffffffffffffffffffffffffff16906020019092919080359060200190929190505050611040565b6040518082815260200191505060405180910390f35b34801561047157600080fd5b506104be6004803603604081101561048857600080fd5b81019080803573ffffffffffffffffffffffffffffffffffffffff169060200190929190803590602001909291905050506110a1565b005b3480156104cc57600080fd5b5061051c600480360360408110156104e357600080fd5b81019080803573ffffffffffffffffffffffffffffffffffffffff169060200190929190803560ff16906020019092919050505061134c565b005b80600160008473ffffffffffffffffffffffffffffffffffffffff1673ffffffffffffffffffffffffffffffffffffffff1681526020019081526020016000206005016000600160008673ffffffffffffffffffffffffffffffffffffffff1673ffffffffffffffffffffffffffffffffffffffff16815260200190815260200160002060060154815260200190815260200160002060010181905550600160008373ffffffffffffffffffffffffffffffffffffffff1673ffffffffffffffffffffffffffffffffffffffff16815260200190815260200160002060060154600160008473ffffffffffffffffffffffffffffffffffffffff1673ffffffffffffffffffffffffffffffffffffffff1681526020019081526020016000206005016000838152602001908152602001600020600001819055506000600160008473ffffffffffffffffffffffffffffffffffffffff1673ffffffffffffffffffffffffffffffffffffffff16815260200190815260200160002060050160008381526020019081526020016000206001018190555080600160008473ffffffffffffffffffffffffffffffffffffffff1673ffffffffffffffffffffffffffffffffffffffff168152602001908152602001600020600601819055505050565b80600160008473ffffffffffffffffffffffffffffffffffffffff1673ffffffffffffffffffffffffffffffffffffffff1681526020019081526020016000206006015414156107e757600160008373ffffffffffffffffffffffffffffffffffffffff1673ffffffffffffffffffffffffffffffffffffffff168152602001908152602001600020600501600082815260200190815260200160002060000154600160008473ffffffffffffffffffffffffffffffffffffffff1673ffffffffffffffffffffffffffffffffffffffff168152602001908152602001600020600601819055505b600160008373ffffffffffffffffffffffffffffffffffffffff1673ffffffffffffffffffffffffffffffffffffffff168152602001908152602001600020600501600082815260200190815260200160002060010154600160008473ffffffffffffffffffffffffffffffffffffffff1673ffffffffffffffffffffffffffffffffffffffff1681526020019081526020016000206005016000600160008673ffffffffffffffffffffffffffffffffffffffff1673ffffffffffffffffffffffffffffffffffffffff1681526020019081526020016000206005016000858152602001908152602001600020600001548152602001908152602001600020600101819055506000600160008473ffffffffffffffffffffffffffffffffffffffff1673ffffffffffffffffffffffffffffffffffffffff1681526020019081526020016000206005016000838152602001908152602001600020600101819055506000600160008473ffffffffffffffffffffffffffffffffffffffff1673ffffffffffffffffffffffffffffffffffffffff1681526020019081526020016000206005016000838152602001908152602001600020600001819055505050565b6060600080600160008573ffffffffffffffffffffffffffffffffffffffff1673ffffffffffffffffffffffffffffffffffffffff168152602001908152602001600020600001600160008673ffffffffffffffffffffffffffffffffffffffff1673ffffffffffffffffffffffffffffffffffffffff16815260200190815260200160002060010154600160008773ffffffffffffffffffffffffffffffffffffffff1673ffffffffffffffffffffffffffffffffffffffff16815260200190815260200160002060020160009054906101000a900460ff16828054600181600116156101000203166002900480601f016020809104026020016040519081016040528092919081815260200182805460018160011615610100020316600290048015610b195780601f10610aee57610100808354040283529160200191610b19565b820191906000526020600020905b815481529060010190602001808311610afc57829003601f168201915b505050505092509250925092509193909250565b6000600160008473ffffffffffffffffffffffffffffffffffffffff1673ffffffffffffffffffffffffffffffffffffffff168152602001908152602001600020600301600083815260200190815260200160002060010154905092915050565b80600160008473ffffffffffffffffffffffffffffffffffffffff1673ffffffffffffffffffffffffffffffffffffffff1681526020019081526020016000206003016000600160008673ffffffffffffffffffffffffffffffffffffffff1673ffffffffffffffffffffffffffffffffffffffff16815260200190815260200160002060040154815260200190815260200160002060010181905550600160008373ffffffffffffffffffffffffffffffffffffffff1673ffffffffffffffffffffffffffffffffffffffff16815260200190815260200160002060040154600160008473ffffffffffffffffffffffffffffffffffffffff1673ffffffffffffffffffffffffffffffffffffffff1681526020019081526020016000206003016000838152602001908152602001600020600001819055506000600160008473ffffffffffffffffffffffffffffffffffffffff1673ffffffffffffffffffffffffffffffffffffffff16815260200190815260200160002060030160008381526020019081526020016000206001018190555080600160008473ffffffffffffffffffffffffffffffffffffffff1673ffffffffffffffffffffffffffffffffffffffff168152602001908152602001600020600401819055505050565b6000600160008373ffffffffffffffffffffffffffffffffffffffff1673ffffffffffffffffffffffffffffffffffffffff16815260200190815260200160002060010154141561103b577fbf0841295e5757b00556874341a77fd194e087edba4809f8685f7fcc9f4820f7836040518080602001828103825283818151815260200191508051906020019080838360005b83811015610e1c578082015181840152602081019050610e01565b50505050905090810190601f168015610e495780820380516001836020036101000a031916815260200191505b509250505060405180910390a182600160008373ffffffffffffffffffffffffffffffffffffffff1673ffffffffffffffffffffffffffffffffffffffff1681526020019081526020016000206000019080519060200190610eac929190611421565b5081600160008373ffffffffffffffffffffffffffffffffffffffff1673ffffffffffffffffffffffffffffffffffffffff168152602001908152602001600020600101819055506000600160008373ffffffffffffffffffffffffffffffffffffffff1673ffffffffffffffffffffffffffffffffffffffff16815260200190815260200160002060020160006101000a81548160ff02191690836002811115610f5357fe5b02179055506000600160008373ffffffffffffffffffffffffffffffffffffffff1673ffffffffffffffffffffffffffffffffffffffff16815260200190815260200160002060060181905550600015156000809054906101000a900460ff161515141561103a576002600160008373ffffffffffffffffffffffffffffffffffffffff1673ffffffffffffffffffffffffffffffffffffffff16815260200190815260200160002060020160006101000a81548160ff0219169083600281111561101a57fe5b021790555060016000806101000a81548160ff0219169083151502179055505b5b505050565b6000600160008473ffffffffffffffffffffffffffffffffffffffff1673ffffffffffffffffffffffffffffffffffffffff168152602001908152602001600020600501600083815260200190815260200160002060010154905092915050565b80600160008473ffffffffffffffffffffffffffffffffffffffff1673ffffffffffffffffffffffffffffffffffffffff16815260200190815260200160002060040154141561118957600160008373ffffffffffffffffffffffffffffffffffffffff1673ffffffffffffffffffffffffffffffffffffffff168152602001908152602001600020600301600082815260200190815260200160002060000154600160008473ffffffffffffffffffffffffffffffffffffffff1673ffffffffffffffffffffffffffffffffffffffff168152602001908152602001600020600401819055505b600160008373ffffffffffffffffffffffffffffffffffffffff1673ffffffffffffffffffffffffffffffffffffffff168152602001908152602001600020600301600082815260200190815260200160002060010154600160008473ffffffffffffffffffffffffffffffffffffffff1673ffffffffffffffffffffffffffffffffffffffff1681526020019081526020016000206003016000600160008673ffffffffffffffffffffffffffffffffffffffff1673ffffffffffffffffffffffffffffffffffffffff1681526020019081526020016000206003016000858152602001908152602001600020600001548152602001908152602001600020600101819055506000600160008473ffffffffffffffffffffffffffffffffffffffff1673ffffffffffffffffffffffffffffffffffffffff1681526020019081526020016000206003016000838152602001908152602001600020600101819055506000600160008473ffffffffffffffffffffffffffffffffffffffff1673ffffffffffffffffffffffffffffffffffffffff1681526020019081526020016000206003016000838152602001908152602001600020600001819055505050565b60028081111561135857fe5b600160003373ffffffffffffffffffffffffffffffffffffffff1673ffffffffffffffffffffffffffffffffffffffff16815260200190815260200160002060020160009054906101000a900460ff1660028111156113b357fe5b141561141d5780600160008473ffffffffffffffffffffffffffffffffffffffff1673ffffffffffffffffffffffffffffffffffffffff16815260200190815260200160002060020160006101000a81548160ff0219169083600281111561141757fe5b02179055505b5050565b828054600181600116156101000203166002900490600052602060002090601f016020900481019282601f1061146257805160ff1916838001178555611490565b82800160010185558215611490579182015b8281111561148f578251825591602001919060010190611474565b5b50905061149d91906114a1565b5090565b6114c391905b808211156114bf5760008160009055506001016114a7565b5090565b9056fea165627a7a72305820ec94ee4b06a6d467cbb96bf62559ada3378089c38e8340f98377ee0538909b2e0029",
  "source": "pragma solidity ^0.5.0;\n\ncontract User {\n\n    enum UserType {user, admin, super_admin}\n    bool super_admin_created = false;\n\n     struct Obj {\n        uint _prev;\n        uint _next;\n    }\n\n    struct Person {\n        string name;\n        uint adr;\n        UserType utype;\n\n        mapping(uint => Obj) properties;\n        uint propertiesTop;\n\n        mapping(uint => Obj) requestList;\n        uint requestListTop;\n    }\n\n    mapping(address => Person) users;\n\n\n    modifier isAdmin() {\n        if(users[msg.sender].utype == UserType.admin)\n        _;\n    }\n\n    modifier isSuperAdmin() {\n        if(users[msg.sender].utype == UserType.super_admin)\n        _;\n    }\n\n\n  event newUserCreated(string name);\n    // any user can\n    function addUser(string memory _name, uint _adr, address _userId) public {\n\n        // check if the user is previously registerd\n        if(users[_userId].adr == uint(0)) {\n            emit newUserCreated(_name);\n            users[_userId].name = _name;\n            users[_userId].adr = _adr;\n            users[_userId].utype = UserType.user;\n\n            users[_userId].requestListTop = 0;\n\n            if(super_admin_created == false) {\n                 users[_userId].utype = UserType.super_admin;\n                 super_admin_created = true;\n            }\n\n        }\n\n\n    }\n\n\n    function getUser(address _userId) view public returns(string memory, uint, UserType) {\n        // return username, aadhaar-number, user-domain\n        return (users[_userId].name, users[_userId].adr, users[_userId].utype);\n    }\n\n    // function addProperty(address _userId, uint _prop_id) public {\n    //     users[_userId].properties.push(_prop_id) -1;\n    // }\n\n    // function getProperty(address _userId, uint _prop_index) view public returns(uint) {\n    //     return users[_userId].properties[_prop_index];\n    // }\n\n    // function getPropertyList(address _userId) view public returns(uint[] memory) {\n    //     return users[_userId].properties;\n    // }\n\n\n    // function removeProperty(address _userId, uint _prop_index) public {\n    //     delete users[_userId].properties[_prop_index];\n    // }\n\n    // function getPropertyLength(address _userId) view public returns(uint) {\n    //     return users[_userId].properties.length;\n    // }\n\n    function changeUserDomain(address _userId, UserType _utype) public isSuperAdmin {\n        users[_userId].utype = _utype;\n    }\n\n    function addPropertyRequest(address _userId, uint _req_id) public {\n        users[_userId].requestList[users[_userId].requestListTop]._next = _req_id;\n\n        users[_userId].requestList[_req_id]._prev = users[_userId].requestListTop;\n\n        users[_userId].requestList[_req_id]._next = 0;\n\n        users[_userId].requestListTop = _req_id;\n    }\n\n    function removePropertyRequest(address _userId, uint _req_id) public {\n        if(users[_userId].requestListTop == _req_id) users[_userId].requestListTop = users[_userId].requestList[_req_id]._prev;\n\n        users[_userId].requestList[users[_userId].requestList[_req_id]._prev]._next = users[_userId].requestList[_req_id]._next;\n\n        users[_userId].requestList[_req_id]._next = 0;\n        users[_userId].requestList[_req_id]._prev = 0;\n    }\n\n    function getNextPropertyRequestId(address _userId, uint _ptr) view public returns(uint) {\n        return users[_userId].requestList[_ptr]._next;\n    }\n\n\n\n\n\n    function addProperty(address _userId, uint _req_id) public {\n        users[_userId].properties[users[_userId].propertiesTop]._next = _req_id;\n\n        users[_userId].properties[_req_id]._prev = users[_userId].propertiesTop;\n\n        users[_userId].properties[_req_id]._next = 0;\n\n        users[_userId].propertiesTop = _req_id;\n    }\n\n    function removeProperty(address _userId, uint _req_id) public {\n        if(users[_userId].propertiesTop == _req_id) users[_userId].propertiesTop = users[_userId].properties[_req_id]._prev;\n\n        users[_userId].properties[users[_userId].properties[_req_id]._prev]._next = users[_userId].properties[_req_id]._next;\n\n        users[_userId].properties[_req_id]._next = 0;\n        users[_userId].properties[_req_id]._prev = 0;\n    }\n\n    function getNextPropertyId(address _userId, uint _ptr) view public returns(uint) {\n        return users[_userId].properties[_ptr]._next;\n    }\n\n}\n",
  "sourcePath": "/home/nikhil/Documents/SIH-master/contracts/User.sol",
  "compiler": {
    "name": "solc",
    "version": "0.5.0+commit.1d4f565a.Emscripten.clang"
  },
  "schemaVersion": "3.0.1",
  "updatedAt": "2019-05-03T07:13:07.459Z",
  "devdoc": {
    "methods": {}
  },
  "userdoc": {
    "methods": {}
  }
}